:020000040800F2
:10000000A80500209D010008670D0008650A00088A
:10001000930A0008550900086B0E00080000000054
:10002000000000000000000000000000E70D0008D4
:10003000D109000800000000E50D0008E90D0008E6
:10004000B7010008B7010008B7010008B7010008B0
:10005000B7010008B7010008B7010008B7010008A0
:10006000B7010008B7010008B7010008B701000890
:100070007D090008A5090008B7010008B7010008BC
:10008000B7010008B7010008B7010008B701000870
:10009000B7010008B7010008B7010008B701000860
:1000A000B7010008B7010008B7010008B701000850
:1000B0005D0E0008B7010008B7010008B70100088D
:1000C000B7010008B7010008B7010008B701000830
:1000D000B7010008690E0008B7010008B701000861
:1000E000B7010008B7010008B7010008B701000810
:1000F000B7010008B7010008B7010008B701000800
:10010000B7010008B7010008B7010008B7010008EF
:10011000B7010008B7010008B7010008B7010008DF
:10012000B7010008B7010008B7010008B7010008CF
:10013000B7010008B7010008B7010008B7010008BF
:1001400000000000000000000000000000000000AF
:10015000B7010008B7010008B7010008B70100089F
:10016000B7010008B7010008B7010008B70100088F
:10017000B7010008B7010008B7010008B70100087F
:10018000B7010008DFF810D000F056FA0048004729
:10019000A1240008AFF30080A8050020064880478E
:1001A00006480047FEE7FEE7FEE7FEE7FEE7FEE75C
:1001B000FEE7FEE7FEE7FEE7ED0D0008850100081B
:1001C00000F0004230F000400AD0C10D01F560712E
:1001D000C0F3160042EA0151C208400711437047BC
:1001E00000200146704730B50B4601460020202212
:1001F000012409E021FA02F59D4205D303FA02F534
:10020000491B04FA02F52844151EA2F10102F1DC93
:1002100030BD2DE9F05F0546002092469B4688469A
:100220000646814640241BE0284641464746224672
:1002300000F023FA53465A46C01A914110D3114692
:100240001846224600F00AFA2D1A67EB01084F46BD
:1002500022460120002100F001FA17EB00094E416F
:10026000201EA4F10104DFDC484631462A464346FD
:10027000BDE8F09FF0B400F0004221F0004120F012
:100280000040CE0DC30DC1F3160141F40001C0F3CF
:1002900016004C42154640F40000761E09E010EBB3
:1002A000440002D582F0004240428842F7D8400024
:1002B0005B1EB342F9DA18B1F0BC002100F008BAB5
:1002C0002846F0BC70472DE9FE4F804681EA0300C6
:1002D000C00F0C46009021F0004123F00045B8EB20
:1002E0000200A94105D24046214690461C460B46D5
:1002F000024623F00040104347D0270DC7F30A0001
:10030000C3F30A510290401A019040286BDAC3F3FC
:10031000130040F4801B0098924620B10023D2EBDA
:10032000030A63EB0B0B01985946C0F1400250469B
:1003300000F094F906460D4650465946019A00F0E1
:10034000ACF910EB08006141002487EA115284EAFD
:10035000E7731A4340D0009A62B3019A012A4FEA28
:10036000075215DC001B61EB02014FF0004202EA6C
:100370000752CDE90042001C41F5801132462B4660
:1003800000F0E3F903B0BDE8F08F40462146F9E7FD
:10039000001B61EB0201001C41F5801300185B415A
:1003A0002018A2F5001747EB030140EAD570B619F3
:1003B0006D4111E06D084FEA360645EAC0754FEA17
:1003C0000752001B61EB0201001C41F58011490836
:1003D0004FEA30000019514132462B4603B0BDE8C8
:1003E000F04F00F0A3B90098012240000023D0EBA9
:1003F000020263EBE073009821464FEAE074B8EB29
:10040000000061EB0401E9E783F000435BE781F062
:10041000004158E72DE9FE4F81EA030404F000444F
:1004200021F0004100944FF0000B23F0004350EA0C
:1004300001045ED052EA03045BD0C3F30A54C1F353
:100440000A552C44A4F2F3340194A0FB0254C1F3E6
:10045000130141F48011C3F3130343F4801301FB30
:10046000024400FB034E840A970A44EA815447EA97
:100470008357A4FB076802958D0A05FB07854FEAA1
:10048000932C04FB0C542705029D4FEA065847EABB
:100490001637B5EB08056EEB070C870E920E47EA90
:1004A000811742EA8312A7FB0201B6EB0B0164EB52
:1004B00000042B0D43EA0C335E1844EB1C50DA4663
:1004C0005146E7FB0201C5F313044FEA0B3343EA3D
:1004D00014534FEA0432019C43EA0603A4F10C04CE
:1004E0000294009CCDE900B400F02FF903B0BDE800
:1004F000F08F00200146F9E72DE9F04D81EA030471
:1005000004F0004B21F0004514464FF0000A23F0A0
:10051000004150EA050220D054EA01021DD0C5F383
:100520000A570246C5F31303C1F31300C1F30A5679
:1005300040F4801543F48013A7EB0608101BD64641
:1005400008F2FD3873EB050002D308F1010801E061
:1005500092185B41B8F1000F03DA00200146BDE8B4
:10056000F08D00204FF48011064684460EE0171BE4
:1005700073EB050705D3121B63EB050306434CEA37
:10058000010C49084FEA300092185B4150EA01071C
:10059000EDD152EA030012D082EA040083EA050199
:1005A000084305D0101BAB4106D20122002306E010
:1005B00000224FF0004302E06FF0010253101AEBEB
:1005C00006004CEB085110EB0A0041EB0B01BDE8B3
:1005D000F04D00F0ABB8C1F30A52C1F3130140F281
:1005E000FF3341F480119A4202DA0020014670473D
:1005F00040F233439A42A2F2334202DC524200F00C
:100600003CB800F02BB8000030B5041E71F10004B6
:1006100004DB4FF00044404264EB0101141E73F10F
:10062000000405DB1C464FF00043524263EB040319
:10063000994208BF904230BD064C074D06E0E06885
:1006400040F0010394E8070098471034AC42F6D319
:10065000FFF79CFD6838000888380008202A04DB72
:10066000203A00FA02F1002070479140C2F12003C5
:1006700020FA03F3194390407047202A04DB203A04
:1006800021FA02F00021704721FA02F3D040C2F1B2
:1006900020029140084319467047202A06DBCB17F9
:1006A000203A41FA02F043EAE07306E041FA02F32D
:1006B000D040C2F1200291400843194670470029FA
:1006C000A8BF7047401C490008BF20F001007047D8
:1006D00010B4B0FA80FC00FA0CF050EA010404BF38
:1006E00010BC704749B1CCF1200421FA04F411FA8E
:1006F0000CF118BF012121430843A3EB0C01CB1DD2
:100700004FEA00614FEA102042BF002010BC704742
:1007100000EBC35010440029A4BF10BC7047401C1C
:10072000490008BF20F0010010BC704710B5141E2E
:1007300073F1000408DA401C41F1000192185B419A
:100740001A4301D120F0010010BD2DE9F04D924671
:100750009B4611B1B1FA81F202E0B0FA80F2203288
:100760009046FFF77BFF04460F4640EA0A0041EA45
:100770000B0153465A46084313D0114653EA010071
:1007800019D0C8F140025046FFF777FF05460E46E4
:10079000504659464246FFF761FF084305D0012005
:1007A00004E020463946BDE8F08D0020054346EAC6
:1007B000E0762C4337430A986305E40AA0EB08006F
:1007C0000022FD0A44EA47540A3002D500200146BF
:1007D000E9E7010510196941DDE90845001969419A
:1007E000BDE8F04DA2E7000010B52DED048BF0EE52
:1007F000408AB0EE680A00F0AFF8B0EE409A1148B7
:1008000090ED000A39EE400AB0EE408AB0EE480A98
:1008100000F0CAFAB0EE408A9FED0B0A38EE400AAB
:10082000B0EEC00ADFED090AB4EEE00AF1EE10FA0C
:1008300003D29FED070AB0EE408AB0EE480ABDEC45
:10084000048B10BD1C000020D00FC940BD37863579
:100850000000000030B52DED088B83B008212E4834
:1008600001F02EFDB7EE000A00F016F940F2DC5060
:1008700001F002FB9FED290AB0EE408A0A259FEDA8
:10088000270AB0EE409A002411E000F03BFAB0EEE7
:10089000409AB0EE490A00F05FF8F0EE409A38EE68
:1008A000290AB0EE408A0A2001F0E6FA641C0A2CFC
:1008B000EBDB00F027FAB0EE409AB2EE040AC8EE85
:1008C000000A1748C0ED000AB0EE490AFFF78CFF96
:1008D000F0EE408A18EE900AFFF772FC41EC1A0B1A
:1008E0000F480068FFF76CFC41EC1B0B8DED00AB73
:1008F00053EC1B2B0BA000F0BBFA11A000F0B8FAD0
:100900001021054801F0DEFC9FED040A00F0C4F858
:1009100003B0BDEC088B30BD000C014000000000AE
:100920001C000020E99BB6E794B5E4BD8DE8A792D2
:10093000E5BAA6EFBC9A25662C20256C660D0A0048
:10094000E5889DE5A78BE58C96E5AE8CE688905C06
:10095000720A000000BFFEE710B52DED028BB0EE6D
:10096000408AB1EE0C0A28EE000AF0EE408AB0EEA2
:10097000680A00F019FABDEC028B10BD10B52020FA
:1009800001F070FB48B1012004490870202001F0FB
:10099000BFFA0021024801F0A9FA10BD980000201A
:1009A0001C00024010B54FF4007001F0C1FA48B1CC
:1009B0004FF4007001F0ACFA034801680348006886
:1009C00000F008F810BD00008C000020300000206E
:1009D0007047000070B504460D4600F093F984EDB1
:1009E000100AD4ED100AB0EE600AFFF7FDFE84EDA8
:1009F000120A9FED1B0A84ED0D0AB1EE080A84ED80
:100A00000C0AD4ED121AB0EE611AD4ED0D1AF0EE04
:100A1000610AD4ED0C1AB0EE610A04F10C01081F52
:100A200001F012FD94ED031AF0EE410A94ED021A62
:100A3000B0EE410A04F12C02111F081F01F0CAFC9C
:100A4000D4ED0B1AB0EE611AD4ED0A1AF0EE610A79
:100A5000D4ED091AB0EE610A00F09AF870BD0000FA
:100A60000000000000BFFEE7F0EE401AF4EEC11AED
:100A7000F1EE10FA02DBB0EE410A7047F4EEE01A34
:100A8000F1EE10FA02D8B0EE600AF6E7B0EE610AB5
:100A9000F3E700BFFEE7000010B52DED0A8BB0EEC6
:100AA000408A9FED370AF0EE408A9FED350AB0EE9E
:100AB000409A9FED330AF0EE409A9FED310AFFF71E
:100AC00093FEB0EE40AAB0EE4A0A01F07BFBF1EED5
:100AD000690A20EE20CAB0EE4A0A01F011FB08EEC6
:100AE00000CAF0EE4C8AB0EE4A0A01F009FB20EE93
:100AF00029CAB0EE4A0A01F065FB08EE00CAB0EE62
:100B00004C9A2048D0ED000AB0EE001A80EE810A1F
:100B100030EE280AF0EE40AADFED1B0AB0EE680ABC
:100B200010EE890AB0EE001AC0EE010A90ED000A3C
:100B3000B0EE001AC0EE011A30EEA10AB0EE40BAD3
:100B4000DFED120AB0EE680A10EE890AB0EE001A64
:100B5000C0EE010A90ED000AB0EE001AC0EE011AD4
:100B600030EEA10AF0EE40BAB0EE6B1AF0EE4B0A8E
:100B7000B0EE6A0A00F00CF8BDEC0A8B10BD000064
:100B800000000000180000202DB2DD3F2DB2DDBFB7
:100B900010B52DED048BB0EE409AB0EE608AF0EE09
:100BA000418A324890ED001ADFED310AB0EE490A71
:100BB000FFF75AFFB0EE409A2C4890ED001ADFED97
:100BC0002C0AB0EE480AFFF74FFFB0EE408A2748E4
:100BD00090ED001ADFED260AB0EE680AFFF744FF39
:100BE000F0EE408A214890ED000AC9EE000AF0EECE
:100BF000609AB7EE001ADFED1E0AB0EE690AFFF741
:100C000033FF1C4880ED000A184890ED000AC8EE3A
:100C1000000AF0EE609AB7EE001ADFED150AB0EEAA
:100C2000690AFFF721FF144880ED000A0F4890ED94
:100C3000000AC8EE800AF0EE609AB7EE001ADFED07
:100C40000C0AB0EE690AFFF70FFF0C4880ED000AAE
:100C500090ED001A0848D0ED000A064890ED000A11
:100C600001F012FDBDEC048B10BD00001800002047
:100C70000000000034000020380000203C0000206C
:100C80002DE9F0412DED028B04462189606801F0C9
:100C900017FB204600F03EF80546204600F03AF8E3
:100CA0000646204600F036F807462189606801F0C4
:100CB00009FB280440EA06203843801208EE100A97
:100CC000B8EE480ADFED0C0A20EE200ADFED0B0A31
:100CD00080EE201AF0EE418A9FED090A28EE800A84
:100CE000DFED050A80EE201A84ED031A94ED030A65
:100CF000BDEC028BBDE8F0810000B44300008046EB
:100D0000D00FC94010B50248FFF7BAFF10BD000070
:100D10000800002070B50446002506E0681C80B27B
:100D200005460A2801DD002070BD0221206801F07F
:100D300005FD0028F2D00021206801F0FDFC00250F
:100D400006E0681C80B205460A2801DD0020EBE7BA
:100D50000121206801F0F2FC0028F2D0206801F0A7
:100D6000E7FCC0B2E0E77047F0B503460C4603F07D
:100D70000701C1F10700042801D9042001E0C1F1F5
:100D800007000646081D072801D2002000E0C81E03
:100D900005460120B040401E2040A8400127AF403A
:100DA0007F1E17403843F0BD10B52DED028BF0EEDD
:100DB000408ADFED0B0AB0EE680A00F085F8B0EE6D
:100DC000408AB5EEC08AF1EE10FA04DBB0EE480AB4
:100DD000BDEC028B10BD9FED020A38EE000AF7E76A
:100DE000D00FC9407047704770470000184800682E
:100DF00040F47000164908601648006820F00100B1
:100E0000401C1449086000BF12480068C0F340004D
:100E10000028F9D00F48406820F003000D494860D1
:100E200000BF0C484068C0F381000028F9D1094890
:100E300000680949084007490860002048600863C5
:100E40004FF41F008860C80301498039086070476B
:100E500088ED00E000100240FFFFF2FE10B5012116
:100E6000880701F0E4FD10BD704700BFFEE70000F9
:100E70000FB4054B10B503A9044A029800F05CF9C1
:100E800010BC5DF814FB00008D220008F400002067
:100E900002480068C0F30220704700000CED00E03B
:100EA00010B5002804DB0A07130E054A135406E0A8
:100EB0000A07140E034A00F00F031B1FD45410BD81
:100EC00000E400E018ED00E010B52DED028BF0EE2F
:100ED000408A18EE900AB0EE608A20F00040C0F11F
:100EE000FF40C00F07D118EE100A20F00040C0F1FB
:100EF000FF40C00F2BD018EE101A18EE900AFFF723
:100F0000B9F900EE100A10EE100A6FEAD05010F096
:100F1000FF0F04BFBDEC028B10BD18EE900A00F06D
:100F2000004110EE100A00F00040814204BFBDEC09
:100F3000028B10BD18EE101A10EE100ABDEC028BD9
:100F400061F31E0000EE900A30EE600A10BD18EE4C
:100F5000900A4FF07F41B1EB400F1CBF18EE100A12
:100F60005FEA4000C7D1012000F01EF8BDEC028B03
:100F7000BDE81040AFF30080DFED020A80EEA00A6A
:100F8000704700000000000002E008C8121F08C1FE
:100F9000002AFAD170477047002001E001C1121FFA
:100FA000002AFBD17047000001490860704700002B
:100FB000F80000202DE9FF5F82B00021DDE9043058
:100FC000020DDDF840B0034318D044F61050A2F2F1
:100FD000FF3242431514119801281FD0A5EB0B00D6
:100FE000401C5FEA000A4FF000064E4FDFF83891D0
:100FF000B046504615D5CAF1000413E011980124FB
:101000004AA3012801D16FEA0B010298119AC0E9A5
:101010000031C0E9024206B0BDE8F09FCBF100000C
:10102000DFE704460021404A491842EB0450CDE96D
:10103000001012E0E00707D032463B4640464946E2
:10104000FFF7E8F98046894632463B461046194686
:10105000FFF7E0F906460F466410002CEAD1DDE9FF
:101060000401DDE90023BAF1000F06DAFFF7D2F937
:1010700042464B46FFF7CEF905E0FFF73DFA424600
:101080004B46FFF739FA04460E460022284BFFF77D
:10109000BBFA03D84FF0FF30014607E00022254B92
:1010A00020463146FFF70FF9FFF795FA102409E0C3
:1010B000002C0ADB0A220023FFF7ABF8039B303237
:1010C0001A55641E50EA0102F2D1641C039AC4F15D
:1010D00011031444119A012A03D0012208430DD1AF
:1010E0000AE0084304D000204FF0110B119072E782
:1010F000A3EB0B056D1E0DE05B4504DD4FF0000218
:1011000005F1010504E003DA4FF00002A5F1010545
:10111000002AECD002981199C0E90231C0E90045DB
:1011200079E70000000014400000F03F30000000AC
:101130000000F0430000E03F2DE9FF4F95B09A46D4
:10114000884606460025EEE1252877D1002427466B
:10115000F94A0121039400E0044316F8013F203BC3
:1011600001FA03F01042F7D130782A2811D06FF03D
:101170002F033078A0F13002092A16D8039A44F0E0
:10118000020402EB820203EB42021044761C03903D
:10119000EFE758F8042B0392002A03DA504244F494
:1011A0000054039044F00204761C30782E2816D1A7
:1011B00016F8010F44F004042A280DD06FF02F0216
:1011C0003078A0F13003092B09D807EB870302EB35
:1011D0004303C718761CF3E758F8047B761C307875
:1011E0006C280FD006DC4C2817D068280DD06A2850
:1011F00014D104E0742810D07A280FD10DE044F403
:1012000000140AE044F4801401E044F440147278BD
:10121000824202D104F58014761C761C3078662850
:101220000BD013DC582877D009DC002875D045286E
:10123000F6D04628F4D047281AD193E118E0632865
:1012400035D0642879D0652812D18BE1702873D00D
:1012500008DC6728F1D069286FD06E280DD06F2880
:1012600006D1ACE073282CD0752874D0782853D0E0
:101270005246179990476D1C54E1C4F3025002285E
:1012800009D003280DD0D8F8001004280DD00D6027
:1012900008F1040846E1D8F80010EA17C1E9005245
:1012A000F6E7D8F800100D80F2E70D70F0E718F8B7
:1012B000041B8DF8001000208DF80100EB46012082
:1012C00003E058F804BB4FF0FF3061074FF0000116
:1012D00002D40DE009F101018946B9420FDA8145D6
:1012E000F8DB1BF809100029F4D108E009F101012D
:1012F00089468142FADB1BF809100029F6D10398D0
:101300005346A0EB090721463846179A00F080FAA9
:10131000284400EB090507E044E008E10DE01BF874
:10132000010B524617999047B9F10109F7D253467C
:1013300021463846179AF2E039E00A21C4F30252F6
:101340004FF0000B0091022A06D058F8040BC11789
:10135000032A09D00AE023E008F1070020F0070281
:10136000F2E80201904605E000B2C117042A01D15B
:1013700040B2C117002906DA0A460021404261EB5B
:1013800002012D2202E0220504D52B228DF8042033
:10139000012203E0E20701D02022F7E7914657E05F
:1013A0000A2100E010214FF0000B00910BE010210A
:1013B0004FF0000B44F004040827009103E00820DC
:1013C0004FF0000B0090C4F30252022A05D058F8E7
:1013D000040B0021032A08D008E008F1070020F0E0
:1013E0000702F2E80201904603E080B2042A00D12D
:1013F000C0B24FF0000922072AD53278702A07D0F0
:10140000DDF800C08CF0100C5CEA0B0C05D00EE08F
:1014100040228DF80420012208E050EA010306D0A2
:1014200030238DF804308DF8052002229146009B70
:1014300083F0080353EA0B030AD150EA010201D1F9
:10144000620705D530228DF804204FF001097F1E78
:101450003278582A04D039A20C920CAA02920BE0DE
:101460003BA2F9E75B46009AFEF7D3FE0C9B9B5C20
:10147000029A521E0292137050EA0102F2D10298AF
:1014800004A9081A00F1200B600702D524F4803467
:1014900000E001275F4502DDA7EB0B0000E0002024
:1014A00000EB0B01009003984944401A0390E003BD
:1014B00006D453462146179A039800F0A9F905442B
:1014C000002706E001A85246C05D179990476D1CA1
:1014D0007F1C4F45F6DBE0030CD553462146179A97
:1014E000039800F095F9054404E03020524617991E
:1014F00090476D1C0099481E00900029F5DC08E01B
:101500000298029952460078491C02911799904717
:101510006D1CBBF10001ABF1010BF1DC5BE100F0F4
:1015200065F90544761C307800287FF40DAE19B0BB
:101530002846BDE8F08F0000092801003031323321
:1015400034353637383961626364656600000000FF
:1015500030313233343536373839414243444546E9
:1015600000000000600700D4062708F1070020F003
:101570000700F0E80223804603F0004C5FEA0C000D
:1015800001D097A009E0200501D596A005E0E0076D
:1015900001D095A001E0AFF24C001390307823F019
:1015A000004365280CD006DC452809D046281DD00C
:1015B00047287FD13BE0662818D067287AD136E0EB
:1015C0000021112F01DB112000E0781CCDE9000182
:1015D00004A90CA8FFF7EEFCDDE90D010C9A4FF011
:1015E000000B07F10109109200914EE04FF000400E
:1015F0000097CDE9011004A90CA8FFF7DBFCDDE999
:101600000D020C9B0F994FF0000B91461093009226
:1016100011B9791C00EB0109B7EB090003D4C0F143
:10162000FF3B07F10109A9EB0700019042E0012F00
:1016300000DA01270021112F01DD112000E03846DA
:10164000CDE9000104A90CA8FFF7B4FCDDE90D0108
:101650000C9A00914FF0000BB946109221070FD45D
:10166000009A4A4503DA914601E0A9F10109B9F16E
:10167000010F05DD109AA9F10101515C3029F4D068
:10168000B84202DA10F1040F03DA0121CDE90110AA
:1016900010E0002803DC8344A9EB000102E0411CB8
:1016A000494500DD8946A0EB0B00401C01904FF03E
:1016B00000400290200705D40198484502DB4FF016
:1016C000FF30019000208DF84B0002980DF14B0780
:1016D000B0F1004F25D002200C902B200D900298E5
:1016E00000280CDA404202902D200D9007E00A21DC
:1016F0000298FEF778FD3031029007F8011D0C9931
:10170000481E0C900029F2DC02980028EFD1791EC7
:101710000D980870307800F0200040F0450007F880
:10172000020D11A8C01BC01D02901398007800B1D3
:10173000012000EB0901019801EBE07102980144DE
:101740000398401A401E0390E00306D453462146F6
:10175000179A039800F05CF805441398007818B1C4
:101760005246179990476D1CE00323D553462146F6
:10177000179A039800F04CF805441BE0BBF1000FEA
:1017800007DB0098584504DD1098179910F80B00F6
:1017900001E0179930205246904701980BF1010B58
:1017A000401E05F10105019004D12E2052461799E3
:1017B00090476D1CB9F10001A9F10109DEDC05E0DB
:1017C00017F8010B5246179990476D1C0299481E55
:1017D00002900029F4DC53462146179A03989EE6AE
:1017E0002D0000002B000000200000002DE9F0413A
:1017F000044600251E461746880404D405E03946F1
:101800002020B0476D1C641EF9D52846BDE8F08144
:101810002DE9F041044600251E469046C80301D537
:10182000302700E02027880404D505E041463846EB
:10183000B0476D1C641EF9D52846BDE8F0810B78D1
:10184000426863F3082242604B78826863F3410286
:1018500082608B78826863F3CB228260CA78521EE2
:10186000C36A62F31753C36270470021017041706D
:1018700081700121C1707047816821F00801083131
:101880008160704701468868C0F3C00008B101203C
:1018900070470020FCE7816821F00401091D816088
:1018A000704701468868C0F3800008B10120704786
:1018B0000020FCE70349096860F31341014A116005
:1018C0007047000004240140826861F308228260AE
:1018D0007047826861F300028260704770B5044609
:1018E0000A290CDA206901EB41060725B540A84317
:1018F00001EB410503FA05F5284320610FE0E0689C
:10190000A1F10A0505EB45060725B540A843A1F15D
:101910000A0505EB450503FA05F52843E0600D2AA5
:1019200010DBE06AA2F10D0505EB85061F25B54029
:10193000A843A2F10D0505EB850501FA05F528433D
:10194000E0621EE0072A0EDB206BD51F05EB850643
:101950001F25B540A843D51F05EB850501FA05F500
:10196000284320630DE0606B551E05EB85061F259F
:10197000B540A843551E05EB850501FA05F528433A
:10198000606370BD07290ADD836823F0007303F1EB
:1019900000738360836861F35343836007E0836867
:1019A00023F000738360836861F35343836083682B
:1019B00062F3145383607047426861F3CB22426044
:1019C0007047000010B504461348844208D1012135
:1019D000124800F083F90021104800F07FF91AE066
:1019E0000F4884420AD101210C48401C00F076F9CE
:1019F00000210A48401C00F071F90CE009488442BB
:101A000009D101210548801D00F068F90021034833
:101A1000801D00F063F910BD0024014009000C0096
:101A200000280140003C01400649496860F38F31BD
:101A3000044A516082080349496862F31C71014AF3
:101A400051607047001002400349496860F3071174
:101A5000014A516070470000001002400349496884
:101A600060F30A21014A51607047000000100240F3
:101A70000349496860F3CD21014A51607047000075
:101A800000100240012807D10749496D21F03001BB
:101A90003031054A516505E00349496D21F03001B7
:101AA000014A51657047000000100240052827D206
:101AB000DFE800F0030A11181F00134A126861F3EF
:101AC0000002114B1A601CE00F4A126861F31042C9
:101AD0000D4B1A6015E00C4A126861F318620A4B4C
:101AE0001A600EE0084A126A61F30002064B1A629D
:101AF00007E0054A526A61F30002034B5A6200E0B4
:101B000000BF00BF70470000001002402DE9F04107
:101B1000014600270022002590460023002400F003
:101B200087F9064626B1012E12D0022E43D112E0CB
:101B30003948406DC0F3402038B13748006BC0F3DE
:101B4000406010B13548086001E03548086035E074
:101B50003348086032E030484068C0F300482E48FF
:101B60004068C0F383422C484068C0F341750DB90A
:101B70000F2A03D12801401C024400E0921CB8F156
:101B8000000F03D127485043086013E02248406803
:101B9000C0F3404058B12048406DC0F30137B81C35
:101BA000DFF87CC0BCFBF0F05043086002E01C484A
:101BB0005043086002E01A48086000BF00BF1648A2
:101BC0004068C0F303131848C45C0868E0404860EC
:101BD00011484068C0F302231448C45C4868E040E0
:101BE000C8600D484068C0F3C2231148C45C48680F
:101BF000E040886008484068C0F3007306484068C9
:101C0000C0F3813040EA83030A48C45C8868B0FBB3
:101C1000F4F00861BDE8F08100100240006CDC02C5
:101C200000127A0000093D003038000840380008F2
:101C3000483800085038000810B501460020094B0C
:101C400003EB1142126801F01F040123A3401A4064
:101C500001F01F040123A3409A4200D000E00120BC
:101C600010BD00000010024030B50024002500E047
:101C7000641C1120FFF7E0FF012802D0B4F5405F9B
:101C8000F6D31120FFF7D8FF012801D0002500E08E
:101C90000125284630BD000010B501290DD10E4B9D
:101CA00003EB1042126800F01F040123A3401A4303
:101CB000094C04EB10431A600CE0074B03EB104295
:101CC000126800F01F040123A3409A43024C04EB66
:101CD00010431A6010BD00000010024010B5012929
:101CE0000DD10E4B03EB1042126800F01F040123CC
:101CF000A3401A43094C04EB10431A600CE0074B55
:101D000003EB1042126800F01F040123A3409A4322
:101D1000024C04EB10431A6010BD0000001002409A
:101D200010B568B91C4B5B6823F480331A4C6360B0
:101D300023461B6B23F0007303F10073236317E04A
:101D4000154B5B6823F4803303F58033124C6360DA
:101D5000012805D123465B6823F40033636007E064
:101D60000D4B5B6823F4003303F500330A4C6360CA
:101D7000094B5B6861F39543074C63600C09064BA4
:101D80005B6864F35E73044C636023465B6862F3D4
:101D9000DF73636010BD000000100240134800684C
:101DA00020F00100401C1149086000BF0F48006886
:101DB000C0F340000028F9D00C48406820F0030030
:101DC0000A49486000BF09484068C0F38100002804
:101DD000F9D1064800680649084004490860002017
:101DE000486008634FF41F0088607047001002408D
:101DF000FFFFF2FE0D49496860F301010B4A516093
:101E000000BF00BF00BF00BF00BF00BF00BF00BFDA
:101E100000BF00BF00BF00BF00BF00BF00BF00BFCA
:101E200000BF00BF00BF00BF7047000000100240AD
:101E300002484068C0F38100704700000010024073
:101E400010B5042000F090FD074800680749B0FB7A
:101E5000F1F007490860084600684FF47A7148437A
:101E60000449086010BD00000400002040420F003B
:101E70009000002094000020002131E032280ADD8B
:101E8000194A126832235A434FF0E0235A61A0F1F5
:101E9000320290B206E0144A126842434FF0E02347
:101EA0005A61002000224FF0E0239A611A4612691D
:101EB00042F001021A6100BF4FF0E022116901F007
:101EC00001021AB101F48032002AF5D04FF0E0226D
:101ED000126922F001024FF0E0231A6100229A6198
:101EE0000028CBD17047000094000020026861F305
:101EF0000002026070470021016041600181418160
:101F0000017341738173C1730174417470470000A0
:101F1000B0F1805F04D920F07041034A116001E004
:101F2000024948607047000004040240000002407B
:101F3000014600200022B1F1805F02D9054B1A68EA
:101F400001E0054B1A6802EA01030BB1012000E031
:101F5000002070470004024000000240D0F8A43086
:101F6000C3F300633BB9D0F8A43023F0807303F1CE
:101F70008073C0F8A430012906D1D0F8A03062F3F4
:101F80000703C0F8A03034E0022906D1D0F8A03011
:101F900062F30F23C0F8A0302BE0032906D1D0F85C
:101FA000A03062F31743C0F8A03022E0042906D124
:101FB000D0F8A03062F31F63C0F8A03019E0052903
:101FC00006D1D0F8A43062F30703C0F8A43010E0C3
:101FD000062906D1D0F8A43062F30F23C0F8A4304C
:101FE00007E0072905D1D0F8A43062F31743C0F801
:101FF000A430704702684BF6EF731A400260026823
:102000000B891A4302604B7C026863F30D32026055
:10201000CB7B026863F38B2202608B7B026863F3E5
:10202000092202604B7B026863F3C71202600B7BDC
:10203000026863F3861202600B7C026863F3451248
:1020400002604A8942600A6882604A68C2607047DA
:102050001AB103680B43036002E003688B4303601B
:1020600070470000014600200022B1F1805F02D9D4
:10207000054B1A6801E0054B1A6802EA01030BB12F
:10208000012000E0002070470004024000000240F0
:102090000021026822F00102026000220260426018
:1020A0008260C260014640F2FF420A40B2F5816F91
:1020B0000DD2CAB2083A1423B2FBF3F293000F22F6
:1020C0009A400D4B5B681A430B4B5A6012E040F28A
:1020D000FF420A40B2F5916F0CD2CAB2083A1423FB
:1020E000B2FBF3F293000F229A40044B1B681A4391
:1020F000024B1A60704700000000024004040240D6
:10210000F0EE400A9FED270A20EE800ABDEEC00ADD
:1021100010EE100A00EE100AB8EEC01ADFED221A17
:10212000B0EE600A01EE610AF0EE400A00F0010133
:1021300079B1F5EEC00AF1EE10FA04DD9FED1A0A4E
:1021400030EEC00A03E09FED180A30EE800AF0EE90
:10215000400A20EEA00ADFED151AB0EE611ADFED9D
:10216000141A41EE001AB0EE611ADFED121A41EEB8
:10217000001AB0EE611ADFED101A41EE001AB0EE4F
:10218000611ADFED0E1A41EE001AB0EE611ADFEDB2
:102190000C1A41EE001A20EEA01AB7EE000A01EE6A
:1021A000210A704783F9A23EDA0F4940F2A3ED30CD
:1021B000017591B4B3CCCF371408B6BA83AA2A3DBF
:1021C000FDFFFFBEF0EE400A9FED280A20EE800AD8
:1021D000BDEEC00A10EE100A00EE100AB8EEC01AEA
:1021E000DFED231AB0EE600A01EE610AF0EE400A5C
:1021F00000F0010179B1F5EEC00AF1EE10FA04DD4C
:102200009FED1B0A30EEC00A03E09FED190A30EE85
:10221000800AF0EE400A20EEA00ADFED161AB0EEBA
:10222000611ADFED151A41EE001AB0EE611ADFED0A
:10223000131A41EE001AB0EE611ADFED111A41EEE9
:10224000001AB0EE611ADFED0F1A41EE001AB0EE7F
:10225000611ADFED0D1A41EE001A20EEA00A20EE01
:10226000201AB0EE600A01EE210A704783F9A23EFF
:10227000DA0F49407ABF142FCA32D4B235C5383686
:102280009E0A50B97888083CAAAA2ABE70B50446AE
:102290000D4600BF8021094800F015FD0028F9D047
:1022A000A1B2064800F0FCFC00BF4021034800F04A
:1022B0000AFD0028F9D0204670BD0000003801401A
:1022C00041617047016170474FF6FF710160002165
:1022D00081710171042141710121C1717047F0B513
:1022E0000A461588ABB29579032D01D100241AE076
:1022F000957965B9557905F00F045579182D01D1F7
:10230000036110E05579282D0DD143610BE09579DB
:1023100005F00805167906F004063543D67906F06F
:10232000030645EA0604DDB2A5B1002110E001254F
:102330008D401D405DB105688F000F26BE40B5433E
:10234000056005688E0004FA06F635430560491CF1
:102350000829ECD3FF2B15DD1B12002110E001250D
:102360008D401D405DB145688F000F26BE40B543CE
:10237000456045688E0004FA06F635434560491C01
:102380000829ECD3F0BD0000F0B50C46104F07EB68
:102390001062C0F30741C0F30725C6B2C5F120079C
:1023A000A7EB010C4FF0FF3707FA0CF3C5F120073C
:1023B0007F1AFB40CB408B4017689F4317602CB1BE
:1023C00006FA01FC176847EA0C071760F0BD000029
:1023D00000000140194BD3ED001AB0EE002A81EE47
:1023E000821A31EE001A80ED001ADFED151AB0EEF8
:1023F000401A11EEA01AB0EE002AC1EE021A93EDB7
:10240000001AB0EE002AC1EE022A31EEA21A81EDC6
:10241000001ADFED0C1AB0EE401A11EEA01AB0EE61
:10242000002AC1EE021A93ED001AB0EE002AC1EEA6
:10243000022A31EEA21A82ED001A7047180000201D
:102440002DB2DD3F2DB2DDBF70B52DED048BB0EEAA
:10245000408AF0EE608AB0EE419A04460D46B0EE36
:10246000490AFFF7AFFEF1EE480A60EE209AB0EE9F
:10247000490AFFF745FE48EE809AC4ED009AB0EE97
:10248000490AFFF73DFE60EE089AB0EE490AFFF7F1
:1024900099FE48EE809AC5ED009ABDEC048B70BDA4
:1024A00000F022FF00F07CFE00F048FD00F004FE8A
:1024B00000F066FF00F0CAFD00F0CCFC00F046FD25
:1024C00040232B4A2B492C4800F0BCFD01212A480F
:1024D000FFF70CFD00F064FD4023284A25492648FB
:1024E000143000F0AFFD012123481430FFF7FEFC4B
:1024F00000F080FD0323224A22491F48283000F0C3
:10250000A1FD01211C482830FFF7F0FC01F0F2F892
:1025100001F046F900F080FE00F054FF01F0C4F82D
:10252000FFF78EFC0122022113481430FFF790FDC3
:10253000012215490F48001F00F040FC4FF47A704B
:10254000FFF79AFCFEF786F901221146900700F08A
:1025500071FA0122022108482830FFF779FD06E0D0
:10256000074883884288018808A0FEF781FCF7E7C6
:102570006801002004380140080002405801002092
:10258000240000204C24014004000C0025642C256C
:10259000642C25640D0A00002DE9F0470B46144613
:1025A0004FF0000C00BF2C4A1268C2F302211D46F6
:1025B00026460A46C2F10709B9F1040F02D94FF0C5
:1025C000040901E0C2F10709C84602F10409B9F1A2
:1025D000070F02D24FF0000901E0A2F103094F46B4
:1025E0004FF0010909FA08F9A9F1010909EA0509F9
:1025F00009FA07F94FF0010A0AFA07FAAAF1010AE3
:102600000AEA060A49EA0A09CC4601466246002956
:1026100004DB15072E0E114D6E5407E015072F0E23
:102620000D4D0C3501F00F06361FAF5500BF0146AA
:1026300000290DDB00BF00BF01F01F050122AA40E9
:102640004D09AD0005F1E025C5F8002100BF00BF30
:1026500000BFBDE8F08700000CED00E000E400E002
:1026600000BF00F00702064B19684FF6FF03194040
:10267000044B0B4343EA0221014B196000BF704732
:102680000CED00E00000FA0510B52DED048BB0EE66
:10269000408AF0EE608AB0EE419A9FED160A28EE6D
:1026A000000ABCEEC00A10EE102A0021124800F009
:1026B0009BF99FED100A28EE800ABCEEC00A10EECE
:1026C000102A02210C4800F08FF99FED0A0A29EE2A
:1026D000000ABCEEC00A10EE102A0421064800F0E1
:1026E00083F941F28E220621034800F07DF9BDEC0A
:1026F000048B10BD00409C45002C0140026861F332
:102700004D3202607047026961F30F020261704747
:102710000021017041708170C1700171417181713E
:102720000121C1717047026861F38612026070472F
:102730000146C86880B27047C160704702460020F9
:1027400093680B4003B900E001207047C26922F48E
:102750000062C2610A7862B9026822F40042026033
:10276000026822F480420260026822F48062026001
:1027700036E00A78012A0ED1026822F40042026093
:10278000026822F480420260026822F4806202F54C
:102790008062026024E00A78022A0ED1026822F4E4
:1027A000004202F500420260026822F480420260A8
:1027B000026822F48062026012E00A78032A0FD1D4
:1027C000026822F4004202F500420260026822F42C
:1027D000804202F580420260026822F48062026058
:1027E000CB79026863F3492202604A78012A09D151
:1027F000CA79012A06D1026822F4807202F5807239
:10280000026003E0026822F4807202604B78026882
:1028100063F3820202608A78072A0BDD426822F4A1
:10282000807202F5807242608A78036862F3C503A1
:10283000036008E0426822F4807242608B7802688C
:1028400063F3C5020260CB78026863F3C7120260CB
:102850000B79026863F3CB2202604B79026863F361
:10286000410202608B79026863F3000202607047E4
:102870002DE9F0470026002400250027A046A146A8
:10288000FFF7D6FA8246BAF1000F06D0BAF1010F6F
:1028900015D0BAF1020F46D115E02D48406DC0F3B6
:1028A000402040B12A48006BC0F3406018B129486D
:1028B0002949086002E029482749086037E027488D
:1028C0002549086033E022484068C0F300472048AB
:1028D0004068C0F383441E484068C0F341750DB999
:1028E0000F2C03D12801401C044400E0A41C27B98C
:1028F0001B4860431849086014E015484068C0F35D
:10290000404058B11248406DC0F30136B01C134925
:10291000B1FBF0F060431049086003E00F486043EA
:102920000D49086003E00D480B49086000BF00BF77
:1029300007484068C0F303180A4810F80890064892
:10294000006820FA09F004490860BDE8F08700003B
:1029500000100240006CDC020400002000127A002B
:1029600000093D0058380008042808D14FF0E02144
:10297000096941F004014FF0E022116107E04FF0D6
:10298000E021096921F004014FF0E0221161704754
:10299000C1628262436923F001035B1C436170479B
:1029A0008B79426C63F30C3242640B78426C63F3B4
:1029B000070242644B79426C63F38A2242640B79CA
:1029C000426C63F3CB2242644B78426C63F34D322A
:1029D0004264CB78426C63F38E3242648B78426CF3
:1029E00063F30922426470470B4633B1022B06D0D1
:1029F000042B06D0062B08D105E0426306E0826373
:102A000004E0C26302E0026400E000BF00BF704760
:102A1000026861F3092202607047026861F30612DE
:102A200002607047026861F3000202607047CA43A7
:102A300002617047012A03D1C3680B43C36003E0FE
:102A400012B9C3688B43C360704710B50B4633B1EE
:102A5000022B09D0042B0CD0062B14D10EE0846974
:102A600062F3C30484610FE0846962F3CB24846160
:102A70000AE0C46962F3C304C46105E0C46962F397
:102A8000CB24C46100E000BF00BF10BD2DE9F041C0
:102A900000250026002701F108035C1C92F801C004
:102AA0000CFA03FC1FFA8CF592F802C00CFA04FC35
:102AB0001FFA8CF6D0F804C04FF0010808FA04F8A9
:102AC0002CEA080CC0F804C0D0F804C04CEA060C8C
:102AD000C0F804C0D0F804C04FF0010808FA03F8A9
:102AE0002CEA080CC0F804C0D0F804C04CEA050C6D
:102AF000C0F804C00F4637B1022F0DD0042F14D0F8
:102B0000062F24D11AE092F80080D0F818C068F39C
:102B1000061CC0F818C01BE092F80080D0F818C05E
:102B200068F30E3CC0F818C012E092F80080D0F8AC
:102B30001CC068F3061CC0F81CC009E092F80080B5
:102B4000D0F81CC068F30E3CC0F81CC000E000BF09
:102B500000BF4FF0010C0CEB41034FF0030C0CEBEA
:102B6000410492F803C00CFA03FC1FFA8CF592F8AA
:102B700004C00CFA04FC1FFA8CF64FF0010808FAA6
:102B800004F8D0F820C02CEA080CC0F820C0D0F817
:102B900020C04CEA060CC0F820C04FF0010C0CFA23
:102BA00003FCD0F8208028EA0C08C0F82080D0F878
:102BB00020C04CEA050CC0F820C04B004FF0020CBE
:102BC0000CEB410492F805C04FEA41080CFA08FCEE
:102BD0001FFA8CF592F806C04FF0020808EB410886
:102BE0000CFA08FC1FFA8CF64FF0010808FA04F8FA
:102BF000D0F820C02CEA080CC0F820C0D0F820C0C3
:102C00004CEA060CC0F820C04FF0010808FA03F89F
:102C1000D0F820C02CEA080CC0F820C0D0F820C0A2
:102C20004CEA050CC0F820C0BDE8F08110B50B4699
:102C300033B1022B09D0042B0CD0062B14D10EE09B
:102C4000846962F3820484610FE0846962F38A24F8
:102C500084610AE0C46962F38204C46105E0C46966
:102C600062F38A24C46100E000BF00BF10BD426C63
:102C700061F3CF3242647047026861F3C7120260A9
:102C80007047426861F3061242607047026B61F35D
:102C9000070202637047826861F3C712826070475F
:102CA000C1F3080242607047426961F386124261D3
:102CB0007047426961F3C71242617047C26861F3AD
:102CC0004D32C260704702461068084008B10120CA
:102CD00070470020FCE741B9426922F480724261EA
:102CE000426922F40072426127E001290AD1426957
:102CF00022F4807202F580724261426922F400720D
:102D000042611AE002290AD1426922F480724261CA
:102D1000426922F4007202F5007242610DE003295B
:102D20000BD1426922F4807202F5807242614269DD
:102D300022F4007202F50072426170472DE9F043FF
:102D400085B004460F46904699466846FEF7DEFE7B
:102D50001748844205D01748844202D0164884425E
:102D600001D1029E00E0039E06EB86004000B0FB0E
:102D7000F7F50A20B5FBF0F100FB1150052803D24E
:102D80000A20B5FBF0F503E00A20B5FBF0F0451C86
:102D9000A06865F30F00A060E06868F30C30E060A5
:102DA000206969F30D30206105B0BDE8F0830000B3
:102DB00000380140006001400064014030B5012A44
:102DC0000BD100EB11431B6801F01F050124AC403F
:102DD000234300EB114423600AE000EB11431B681E
:102DE00001F01F050124AC40A34300EB1144236014
:102DF00030BD41B9C26822F40072C260C26822F4D8
:102E00008062C2601AE001290AD1C26822F400720D
:102E1000C260C26822F4806202F58062C2600DE086
:102E200002290BD1C26822F4007202F50072C2605E
:102E3000C26822F4806202F58062C2607047C26894
:102E400061F38202C2607047C26861F3C302C2606C
:102E5000704700000EB501A8FFF736FA03208DF881
:102E60000A000120019001A93248FFF738FA032037
:102E70008DF80A000220019001A92E48FFF72FFAD1
:102E800003208DF80A000420019001A92948FFF7CA
:102E900026FA2948FEF796FD0220FEF7C5FD002020
:102EA000FEF708FD6846FEF7E0FC01208DF8000003
:102EB00000208DF801008DF8020003208DF803003A
:102EC00069461D48FEF7BBFC01231A4600211A483B
:102ED000FEF704FD0123022219461748FEF7FEFC07
:102EE0000123032202211448FEF7F8FC01220D21E0
:102EF0001148FEF747FD00210F48FEF75DFD012157
:102F00000D48FEF7E1FC01210B48FEF7E2FC0A4800
:102F1000FEF7B2FC00BF0848FEF7B4FC0028FAD167
:102F20000548FEF7B8FC00BF0348FEF7BAFC0028CE
:102F3000FAD10EBD000801400024014010B5012166
:102F40000148FFF721FA10BD0203103000B585B02B
:102F50001248FFF79DF86846FEF7CDFF0020ADF858
:102F600008008DF80F0001208DF80D0000208DF86D
:102F70000E008DF80C0002208DF8110001208DF854
:102F8000100069460548FFF735F81922012103486A
:102F90000838FEF7E3FF05B000BD0000080002405E
:102FA00000B585B01248FFF773F86846FEF7A3FF37
:102FB0001020ADF8080000208DF80F0001208DF8DA
:102FC0000D0000208DF80E008DF80C0002208DF809
:102FD000110001208DF8100069460548FFF70AF836
:102FE0001A22022102481C38FEF7B8FF05B000BDC6
:102FF0001C00024000B585B01148FFF749F868464B
:10300000FEF779FF0020ADF8080001208DF80F00D1
:103010008DF80D008DF80E0000208DF80C008DF855
:10302000110001208DF8100069460548FEF7E2FF07
:103030000122032102483038FEF790FF05B000BDA1
:103040003000024043608160C26070471CB5684632
:10305000FFF73AF919211648FFF732F94FF480517A
:103060001448FFF72DF902208DF8070000208DF895
:10307000040010208DF806001920009004208DF81F
:10308000050069460A48FFF72AF902208DF8070073
:1030900000208DF8040010208DF80600000200903A
:1030A00004208DF8050069460248FFF718F91CBD99
:1030B000000C01400008014070B50320FFF7D0FA72
:1030C000FDF7E6FE054600221146FDF74DFE0446DB
:1030D00021466FF00B00FDF7E3FEFDF7D9FE054634
:1030E00000221146FDF740FE044621466FF00A001B
:1030F000FDF7D6FEFDF7CCFE054600221146FDF792
:1031000033FE044621466FF00900FDF7C9FEFDF7C6
:10311000BFFE054600221146FDF726FE0446214665
:103120006FF00400FDF7BCFEFDF7B2FE054600227D
:103130001146FDF719FE044621466FF00300FDF726
:10314000AFFEFDF7A5FE054600221146FDF70CFE79
:10315000044621466FF00100FDF7A2FEFDF798FE40
:10316000054600220F21FDF7FFFD044621464FF0E2
:10317000FF30FDF795FE002211460C20FFF70CFAF8
:10318000002211460D20FFF707FA002211461C20ED
:10319000FFF702FA002211462520FFF7FDF970BD66
:1031A00010B501214FF4A010FEF776FD01214FF478
:1031B000C010FEF771FD01211548FEF76DFD0121DC
:1031C0001348401CFEF768FD01211148C01CFEF7A2
:1031D00063FD01210E48C01DFEF75EFD01210C4874
:1031E0000930FEF759FD012109480A30FEF754FD68
:1031F000012107480C30FEF74FFD01214FF4E0108C
:10320000FEF74AFD01210348FEF746FD10BD000010
:103210000200180012001C001FB502A8FFF754F8A6
:103220006846FFF775FA02208DF80F0000208DF830
:103230000C0008208DF80E002020029004208DF84C
:103240000D0002A92648FFF74AF802208DF80F006A
:1032500000208DF80C008DF80E0040200290042014
:103260008DF80D0002A91E48FFF739F802208DF8ED
:103270000F0000208DF80C0008208DF80E00802033
:10328000029004208DF80D0002A91548FFF727F8D9
:1032900000208DF8000001208DF8010000208DF83D
:1032A00004008DF8030002208DF8020000208DF844
:1032B000050001208DF806008DF8070069460948D1
:1032C000FFF744FA07210748FFF71DFA01210548D7
:1032D000FFF714FA01210348FFF725FA1FBD00008C
:1032E000000801400030014010B5FEF757FD0121F4
:1032F0000420FEF7DBFB00BF2048FEF79DFC012801
:10330000FAD101210846FEF7D1FB00BFFEF7ACFC65
:103310000028FBD001210020FEF7C8FB00BF0120E0
:10332000FEF78AFC0128FAD101221D211046FEF782
:10333000F7FC01210220FEF7B9FB00BF1920FEF7C0
:103340007BFC0128FAD10020FEF77EFB0420FEF76B
:103350008FFB0420FEF782FB0120FEF793FB022087
:10336000FEF748FD00BFFEF763FD0228FBD10020F9
:10337000FEF788FBFFF77CFA10BD00000100240077
:1033800010B586B0002401A8FEF7C0FB029C042003
:10339000FFF7EAFA0948B4FBF0F009490860002099
:1033A0004FF0E02188616FF07F4048610846006976
:1033B00040F00100086106B010BD000040420F005F
:1033C0000000002000B587B005A8FEF77DFF4FF490
:1033D0008050059000208DF81A008DF81800042008
:1033E0008DF8190001208DF81B0005A9AB48FEF7E8
:1033F00076FF4FF40050059008208DF81A00002049
:103400008DF8180004208DF8190001208DF81B009C
:1034100005A9A248FEF763FF4FF4804005900820FD
:103420008DF81A0000208DF8180004208DF819007E
:1034300001208DF81B0005A99848FEF750FF4FF4B6
:103440000040059008208DF81A0000208DF8180023
:1034500004208DF8190001208DF81B0005A98F4864
:10346000FEF73DFF4FF48070059008208DF81A009C
:1034700000208DF8180004208DF8190001208DF827
:103480001B0005A98648FEF72AFF4FF4007005903F
:1034900008208DF81A0000208DF8180004208DF8FF
:1034A000190001208DF81B0005A97D48FEF717FFC4
:1034B0004FF48060059008208DF81A0000208DF8E8
:1034C000180004208DF8190001208DF81B0005A9B3
:1034D0007348FEF704FF4FF40060059008208DF854
:1034E0001A0000208DF8180004208DF81900022021
:1034F0008DF81B0005A96A48FEF7F1FE0221694814
:10350000FFF78BFA00216748FFF782FA0021654830
:10351000FFF7BCFB00216348FFF7AEFB002241F23E
:1035200087316048FFF734FA00215E48FFF7B3FBAC
:1035300007215C48FFF7A5FB06208DF80C00012051
:103540008DF811008DF8120000208DF80F008DF815
:1035500010008DF80D008DF80E0003AA00215148CF
:10356000FFF794FA002211464E48FFF73DFA002279
:1035700011464C48FFF769FA002211464948FFF707
:1035800055FB06208DF80C0001208DF811008DF8F8
:10359000120000208DF80F008DF810008DF80D003E
:1035A0008DF80E0003AA02213E48FFF76FFA0022B1
:1035B00002213C48FFF718FA002202213948FFF7A0
:1035C00044FA002202213748FFF730FB06208DF82D
:1035D0000C0001208DF811008DF8120000208DF8EC
:1035E0000F008DF810008DF80D008DF80E0003AA65
:1035F00004212C48FFF74AFA002204212948FFF74A
:10360000F3F9002204212748FFF71FFA00220421C2
:103610002448FFF70BFB06208DF80C0001208DF8E5
:10362000110000208DF812008DF80F008DF81000A9
:103630008DF80D008DF80E0003AA06211948FFF73A
:1036400025FA002206211748FFF7CEF900220621AD
:103650001448FFF7FAF9002206211248FFF7E6FAAC
:1036600000208DF80A008DF807008DF805008DF810
:1036700008008DF809008DF8060032208DF804004E
:1036800001A90848FFF78CF901210648FFF7EFFA76
:1036900001210448FFF7C6F907B000BD000C014046
:1036A00000080140002C014010B500214FF080407F
:1036B000FFF7B3F900214FF08040FFF7A9F900218F
:1036C0004FF08040FFF7D8FA172242F20F714FF007
:1036D0008040FFF75DF900214FF08040FFF7DBFAF3
:1036E00000214FF08040FFF7CCFA01218807FFF757
:1036F00099F910BD1CB56846FEF7E6FD02208DF86D
:10370000070000208DF8040008208DF806004020F6
:10371000009004208DF8050069461D48FEF7DFFD86
:1037200002208DF8070000208DF804008DF80600B7
:103730008020009004208DF8050069461448FEF7AB
:10374000CEFD01211348FEF71FFE00231A46124941
:103750001248FFF7F3FA01211048FFF775FB01212A
:103760000E48FFF76CFB00210C48FFF742FB0121DC
:103770000A48FFF79EFA01210848FFF795FA002151
:103780000648FFF7A8FA01210448FFF797FA1CBD85
:10379000000C01400104102C80841E000038014000
:1037A0001CB56846FEF790FD02208DF8070000204A
:1037B0008DF8040008208DF80600C0010090042058
:1037C0008DF8050069461848FEF789FD02208DF83E
:1037D000070000208DF804008DF806004FF400600B
:1037E000009004208DF8050069460F48FEF777FD2C
:1037F00000231A464FF461210C48FFF79FFA01217C
:103800000A48FFF721FB01210848FFF718FB0021B8
:103810000648FFF7EEFA00210448FFF75CFA0121A1
:103820000248FFF74BFA1CBD000C01400048004065
:103830000000000000000000010203040607080960
:103840000000000001020304000000000102030464
:1038500002040608020C081000000000000000002E
:103860000102030406070809883800080000002048
:10387000FC000000880F000884390008FC000020CC
:10388000AC040000980F00080000000000127A004D
:1038900000300140000C0140010000000000000069
:1038A0000000C04100000000000000000000000017
:1038B0000000000000000000FC00002000000000EC
:1038C00000000000000000000000803F0000000039
:1038D00000000000000000000000000000000000E8
:1038E00000000000000000000000000000000000D8
:1038F00000000000000000000000000000000000C8
:1039000000000000000000000000000000000000B7
:103910000000000040000020000000000000000047
:10392000000000000AD7233D0AD7233D0000000015
:103930000000000000000000010000009A99993E7C
:103940000AD7233C00000000000000000100000036
:103950000AD7233D0AD7233D0000000000000000E5
:1039600000000000010000009A99993E0AD7233C0C
:103970000000000000000000010000000000000046
:043980000000000043
:040000050800018569
:00000001FF
