:020000040800F2
:10000000180D002065020008E903000863030008DA
:10001000E50300081F030008E904000800000000D1
:100020000000000000000000000000006D04000857
:1000300061030008000000006B0400086F04000862
:100040007F0200087F0200087F0200087F0200088C
:100050007F0200087F0200087F0200087F0200087C
:100060007F0200087F0200087F02000825030008C5
:100070007F0200087F0200087F0200087F0200085C
:100080007F0200087F0200087F0200087F0200084C
:100090007F0200087F0200087F0200087F0200083C
:1000A0007F0200087F0200087F0200087F0200082C
:1000B0007F0200087F0200087F0200087F0200081C
:1000C0007F0200087F0200087F0200087F0200080C
:1000D0007F0200087F0200087F0200087F020008FC
:1000E0007F0200087F0200087F0200087F020008EC
:1000F0007F0200087F0200087F0200087F020008DC
:100100007F0200087F0200087F0200087F020008CB
:100110007F0200087F0200087F0200087F020008BB
:100120007F0200087F0200087F0200087F020008AB
:100130007F0200087F0200087F0200087F0200089B
:1001400000000000000000000000000000000000AF
:100150007F0200087F0200087F0200087F0200087B
:100160007F0200087F020008E10400087F02000807
:100170007F0200087F0200087F0200087F0200085B
:100180007F02000800F002F800F05CF80AA090E896
:10019000000C82448344AAF10107DA4501D100F042
:1001A00051F8AFF2090EBAE80F0013F0010F18BFB3
:1001B000FB1A43F001031847603100008031000052
:1001C0000A444FF0000C10F8013B13F0070408BF7D
:1001D00010F8014B1D1108BF10F8015B641E05D01B
:1001E00010F8016B641E01F8016BF9D113F0080FD0
:1001F0001EBF10F8014BAD1C0C1B09D16D1E58BF62
:1002000001F801CBFAD505E014F8016B01F8016B98
:100210006D1EF9D59142D6D370470000002300240B
:1002200000250026103A28BF78C1FBD8520728BF06
:1002300030C148BF0B6070471FB503F04BF81FBDBE
:1002400010B510BD00F031F81146FFF7F5FF00F0D2
:10025000B9FE00F04FF803B4FFF7F2FF03BC00F063
:1002600057F800000948804709480047FEE7FEE7C5
:10027000FEE7FEE7FEE7FEE7FEE7FEE7FEE7FEE756
:1002800004480549054A064B704700007104000800
:100290008501000818070020180D0020180900200B
:1002A00018090020704770477047754600F02CF819
:1002B000AE4605006946534620F00700854618B053
:1002C00020B5FFF7DDFFBDE820404FF000064FF0FE
:1002D00000074FF000084FF0000B21F00701AC467B
:1002E000ACE8C009ACE8C009ACE8C009ACE8C0099A
:1002F0008D46704710B50446AFF300802046BDE838
:100300001040FFF7A8BF000000487047B406002067
:1003100001491820ABBEFEE726000200704700BF6F
:10032000FEE7000010B5022000F054FC98B1022056
:1003300000F040FC0021084800F02AFC002106489B
:10034000143800F025FC054A1189506800F0B2FD10
:1003500001200249887610BD1C00024018000020D0
:10036000704700BFFEE7000010B52DED028B04467C
:10037000204600F01BF800BFA07E0028FCD09FEDB7
:100380000A8AA07E58B1E07D8101207E41EAA0006A
:1003900000EE100AF8EE400AB0EE608A00BFB0EE40
:1003A000480ABDEC028B10BD0000000010B50446E9
:1003B0002189606800F07CFD0020A0760121E068C2
:1003C00000F0E6FB0121206900F0E2FB00BF022102
:1003D000206800F0D3FE0028F9D00021206800F04A
:1003E000C1FE10BD00BFFEE77047F0B503460C46E6
:1003F00003F00701C1F10700042801D9042001E03E
:10040000C1F107000646081D072801D2002000E0C0
:10041000C81E05460120B040401E2040A8400127CC
:10042000AF407F1E17403843F0BD30B503461C4631
:10043000002003E0255C1554451CE8B2B0EB810FA9
:10044000F8DB002002F82100012505EB810550555D
:100450008020022505EB810550557F20032505EB03
:10046000810550558800001D30BD704770477047AA
:100470001848006840F47000164908601648006883
:1004800020F00100401C1449086000BF12480068B9
:10049000C0F340000028F9D00F48406820F0030066
:1004A0000D49486000BF0C484068C0F38100002837
:1004B000F9D1094800680949084007490860002047
:1004C000486008634FF41F008860C8030149803901
:1004D0000860704788ED00E000100240FFFFF2FE68
:1004E00010B502F0EFFE10BD00BFFEE70248006845
:1004F000C0F30220704700000CED00E010B50028AA
:1005000004DB0A07130E054A135406E00A07140E0B
:10051000034A00F00F031B1FD45410BD00E400E099
:1005200018ED00E030B90A4A126822F00202084BC6
:100530001A6006E0064A126822F00202921C044B7E
:100540001A60034A126861F30002014B1A60704797
:100550000458014001490860704700000C580140F0
:1005600001490860704700001058014001490860C7
:1005700070470000145801400146012081F85200E4
:10058000002081F853000860084800684865074863
:1005900082795A204254054802795820425403482F
:1005A0004279592042540020704700003400002056
:1005B00070B50446002526468221304601F0BFFE74
:1005C0008121304601F0BBFE0121304601F0B7FE2B
:1005D000284670BD2DE9F041044600272646706884
:1005E000456A0021304602F0D4F9804695F84C0067
:1005F000202808D11FFA88F395F84C1005F1440221
:10060000204601F0F7FA3846BDE8F08101460020A7
:10061000704702460020012904D0022903D0032993
:1006200003D101E002E001E000E000BF00BF70473D
:1006300030B502460C4611464D686B6A0020012514
:1006400083F8525030BD2DE9F0410446002725467D
:100650006868466A082303228221284601F0FCFECE
:10066000402302228121284601F0F6FE4023022287
:100670000121284601F0F0FE4023321D01212846C9
:1006800001F016FF3046FFF777FF3846BDE8F081EE
:100690002DE9F04104460F464FF0000825466868F2
:1006A000466A3946284602F074F9A6F8500001203F
:1006B00086F853004046BDE8F0812DE9F04106463A
:1006C0000C464FF0000837467868456A207800F0FD
:1006D000600010B3202843D1E088E8B1207800F012
:1006E000800068B1E388617805F14402304601F08A
:1006F00081FAE28805F14401384601F0CEFC0BE0B6
:10070000607805F84C0FE08868806A884C3D05F1F8
:100710004401384601F0A3FC26E0607806280AD0A0
:1007200004DC012814D0032814D112E00A2806D0D2
:100730000B280FD109E0384601F0CFFC0EE0012272
:100740002946384601F0A9FC08E06088286005E0E9
:1007500004E003E0384601F0C0FC00BF00BF03E046
:10076000384601F0BAFC00BF00BF4046BDE8F0814A
:1007700001460020704700000349496860F30711F3
:10078000014A516070470000001002400349496867
:1007900060F30A21014A51607047000000100240D6
:1007A0000349496860F3CD21014A51607047000058
:1007B00000100240012807D10749496D21F030019E
:1007C0003031054A516505E00349496D21F030019A
:1007D000014A51657047000000100240052827D2E9
:1007E000DFE800F0030A11181F00134A126861F3D2
:1007F0000002114B1A601CE00F4A126861F31042AC
:100800000D4B1A6015E00C4A126861F318620A4B2E
:100810001A600EE0084A126A61F30002064B1A627F
:1008200007E0054A526A61F30002034B5A6200E096
:1008300000BF00BF70470000001002402DE9F041EA
:10084000014600270022002590460023002400F0E6
:100850007DF9064626B1012E12D0022E43D112E0B8
:100860003948406DC0F3402038B13748006BC0F3C1
:10087000406010B13548086001E03548086035E057
:100880003348086032E030484068C0F300482E48E2
:100890004068C0F383422C484068C0F341750DB9ED
:1008A0000F2A03D12801401C024400E0921CB8F139
:1008B000000F03D127485043086013E022484068E6
:1008C000C0F3404058B12048406DC0F30137B81C18
:1008D000DFF87CC0BCFBF0F05043086002E01C482D
:1008E0005043086002E01A48086000BF00BF164885
:1008F0004068C0F303131848C45C0868E0404860CF
:1009000011484068C0F302231448C45C4868E040C2
:10091000C8600D484068C0F3C2231148C45C4868F1
:10092000E040886008484068C0F3007306484068AB
:10093000C0F3813040EA83030A48C45C8868B0FB96
:10094000F4F00861BDE8F08100100240006CDC02A8
:1009500000127A0000093D00DE320008EE32000885
:10096000F6320008FE32000810B501460020094B9F
:1009700003EB1142126801F01F040123A3401A4047
:1009800001F01F040123A3409A4200D000E001209F
:1009900010BD00000010024030B50024002500E02A
:1009A000641C1120FFF7E0FF012802D0B4F5405F7E
:1009B000F6D31120FFF7D8FF012801D0002500E071
:1009C0000125284630BD00000349096B60F35961D9
:1009D000014A1163704700000010024000B5034651
:1009E0000120FFF7F1FF0348406D63F349200149FF
:1009F000486500BD0010024010B501290DD10E4B15
:100A000003EB1042126800F01F040123A3401A43B5
:100A1000094C04EB10431A600CE0074B03EB104247
:100A2000126800F01F040123A3409A43024C04EB18
:100A300010431A6010BD00000010024010B568B9E4
:100A40001C4B5B6823F480331A4C636023461B6B9A
:100A500023F0007303F10073236317E0154B5B6809
:100A600023F4803303F58033124C6360012805D1F1
:100A700023465B6823F40033636007E00D4B5B683B
:100A800023F4003303F500330A4C6360094B5B68C1
:100A900061F39543074C63600C09064B5B6864F394
:100AA0005E73044C636023465B6862F3DF736360CC
:100AB00010BD0000001002401348006820F0010043
:100AC000401C1149086000BF0F480068C0F3400097
:100AD0000028F9D00C48406820F003000A4948601B
:100AE00000BF09484068C0F381000028F9D10648DA
:100AF000006806490840044908600020486008630F
:100B00004FF41F008860704700100240FFFFF2FEA4
:100B10000D49496860F301010B4A516000BF00BFF5
:100B200000BF00BF00BF00BF00BF00BF00BF00BFCD
:100B300000BF00BF00BF00BF00BF00BF00BF00BFBD
:100B400000BF00BF7047000000100240024840682C
:100B5000C0F38100704700000010024010B5044649
:100B6000012C01D1FFF73AFF0348406D64F30820E0
:100B70000149486510BD0000001002400349C96DDD
:100B800060F30001014AD165704700000010024087
:100B9000026861F300020260704700210160416059
:100BA00001814181017341738173C1730174417487
:100BB00070470000B0F1805F04D920F07041034A13
:100BC000116001E0024948607047000004040240DF
:100BD00000000240014600200022B1F1805F02D9EE
:100BE000054B1A6801E0054B1A6802EA01030BB1D4
:100BF000012000E000207047000402400000024095
:100C0000D0F8A430C3F300633BB9D0F8A43023F08C
:100C1000807303F18073C0F8A430012906D1D0F8A5
:100C2000A03062F30703C0F8A03034E0022906D1F7
:100C3000D0F8A03062F30F23C0F8A0302BE00329D6
:100C400006D1D0F8A03062F31743C0F8A03022E0FC
:100C5000042906D1D0F8A03062F31F63C0F8A03099
:100C600019E0052906D1D0F8A43062F30703C0F8D3
:100C7000A43010E0062906D1D0F8A43062F30F2387
:100C8000C0F8A43007E0072905D1D0F8A43062F3FA
:100C90001743C0F8A430704702684BF6EF731A4050
:100CA000026002680B891A4302604B7C026863F39E
:100CB0000D320260CB7B026863F38B2202608B7B78
:100CC000026863F3092202604B7B026863F3C71278
:100CD00002600B7B026863F3861202600B7C026881
:100CE00063F3451202604A8942600A6882604A687A
:100CF000C26070471AB103680B43036002E00368E7
:100D00008B430360704700000021026822F001025B
:100D100002600022026042608260C260014640F2CE
:100D2000FF420A40B2F5816F0DD2CAB2083A1423CD
:100D3000B2FBF3F293000F229A400D4B5B681A430B
:100D40000B4B5A6012E040F2FF420A40B2F5916F3D
:100D50000CD2CAB2083A1423B2FBF3F293000F226A
:100D60009A40044B1B681A43024B1A6070470000FC
:100D7000000002400404024010B5054905A002F03D
:100D800008F80A49088002484860084610BD00007B
:100D9000B40500205669727475616C20436F6D5004
:100DA0006F727420436F6E66696700002401002033
:100DB000004870470C0100200048704704010020E3
:100DC00010B5054905A001F0E4FF0B490880024871
:100DD0004860084610BD0000B405002056697274D2
:100DE00075616C20436F6D506F727420496E74652D
:100DF00072666163650000002401002000487047AE
:100E00001401002010B5054905A001F0C2FF0649F4
:100E1000088002484860084610BD0000B405002064
:100E2000417274657279000024010020002070472F
:100E300010B5054905A001F0ACFF0A490880024839
:100E40004860084610BD0000B4050020415433320C
:100E5000205669727475616C20436F6D20506F72FB
:100E600074000000240100200020704710B500F03D
:100E700005F8014810BD00001C01002070B50A48AB
:100E80000468001D0568001D0668344454B108223A
:100E90000649204601F0A9FD0422044910312846E4
:100EA00001F0A3FD70BD0000E8F7FF1FEA0000207D
:100EB00041617047016170474FF6FF710160002189
:100EC00081710171042141710121C1717047F0B537
:100ED0000A461588ABB29579032D01D100241AE09A
:100EE000957965B9557905F00F045579182D01D11B
:100EF000036110E05579282D0DD143610BE0957900
:100F000005F00805167906F004063543D67906F093
:100F1000030645EA0604DDB2A5B1002110E0012573
:100F20008D401D405DB105688F000F26BE40B54362
:100F3000056005688E0004FA06F635430560491C15
:100F40000829ECD3FF2B15DD1B12002110E0012531
:100F50008D401D405DB145688F000F26BE40B543F2
:100F6000456045688E0004FA06F635434560491C25
:100F70000829ECD3F0BD0000F0B50C46104F07EB8C
:100F80001062C0F30741C0F30725C6B2C5F12007C0
:100F9000A7EB010C4FF0FF3707FA0CF3C5F1200760
:100FA0007F1AFB40CB408B4017689F4317602CB1E2
:100FB00006FA01FC176847EA0C071760F0BD00004D
:100FC0000000014002F0AAF802F00EF801F024FF40
:100FD00001F0A0FF02F0EEF801F07EFF01F024FF27
:100FE0000123144A1449154801F072FF01211348E6
:100FF000FFF7CEFD01F042FF03230E4AD21E0E4939
:101000000E48143001F064FF01210C481430FFF742
:10101000BFFD02F015F801F0ECFE02F04BF902F012
:10102000EBF8012202210548FFF764FE01E002F01F
:10103000F9F8FCE72F0000200C30014008000240C6
:101040002DE9F0470B4614464FF0000C00BF2C4A28
:101050001268C2F302211D4626460A46C2F107095C
:10106000B9F1040F02D94FF0040901E0C2F10709F8
:10107000C84602F10409B9F1070F02D24FF0000986
:1010800001E0A2F103094F464FF0010909FA08F9FE
:10109000A9F1010909EA050909FA07F94FF0010A5E
:1010A0000AFA07FAAAF1010A0AEA060A49EA0A094B
:1010B000CC4601466246002904DB15072E0E114D71
:1010C0006E5407E015072F0E0D4D0C3501F00F067D
:1010D000361FAF5500BF014600290DDB00BF00BF22
:1010E00001F01F050122AA404D09AD0005F1E025E0
:1010F000C5F8002100BF00BF00BFBDE8F0870000B9
:101100000CED00E000E400E000BF00F00702064B39
:1011100019684FF6FF031940044B0B4343EA0221C1
:10112000014B196000BF70470CED00E00000FA05AC
:10113000026861F34D3202607047026961F30F0289
:10114000026170470021017041708170C1700171AE
:10115000417181710121C1717047026861F386128A
:1011600002607047C1607047426861F300024260EC
:101170007047426861F341024260704702460020B6
:1011800093680B4003B900E001207047C26922F464
:101190000062C2610A7862B9026822F40042026009
:1011A000026822F480420260026822F480620260D7
:1011B00036E00A78012A0ED1026822F40042026069
:1011C000026822F480420260026822F4806202F522
:1011D0008062026024E00A78022A0ED1026822F4BA
:1011E000004202F500420260026822F4804202607E
:1011F000026822F48062026012E00A78032A0FD1AA
:10120000026822F4004202F500420260026822F401
:10121000804202F580420260026822F4806202602D
:10122000CB79026863F3492202604A78012A09D126
:10123000CA79012A06D1026822F4807202F580720E
:10124000026003E0026822F4807202604B78026858
:1012500063F3820202608A78072A0BDD426822F477
:10126000807202F5807242608A78036862F3C50377
:10127000036008E0426822F4807242608B78026862
:1012800063F3C5020260CB78026863F3C7120260A1
:101290000B79026863F3CB2202604B79026863F337
:1012A000410202608B79026863F3000202607047BA
:1012B0002DE9F0470026002400250027A046A1467E
:1012C000FFF744FC8246BAF1000F06D0BAF1010FD5
:1012D00015D0BAF1020F46D115E02D48406DC0F38C
:1012E000402040B12A48006BC0F3406018B1294843
:1012F0002949086002E029482749086037E0274863
:101300002549086033E022484068C0F30047204880
:101310004068C0F383441E484068C0F341750DB96E
:101320000F2C03D12801401C044400E0A41C27B961
:101330001B4860431849086014E015484068C0F332
:10134000404058B11248406DC0F30136B01C1349FB
:10135000B1FBF0F060431049086003E00F486043C0
:101360000D49086003E00D480B49086000BF00BF4D
:1013700007484068C0F303180A4810F80890064868
:10138000006820FA09F004490860BDE8F087000011
:1013900000100240006CDC021000002000127A00F5
:1013A00000093D0006330008042808D14FF0E02171
:1013B000096941F004014FF0E022116107E04FF0AC
:1013C000E021096921F004014FF0E022116170472A
:1013D00040200149088070470C0000200146034A64
:1013E000108812880A44014B1A8070470C000020B4
:1013F000016C21F002010164016E21F0020101661D
:10140000704710B50446206C20F0010020640020D5
:10141000606420658020E06401224FF41E41204674
:1014200000F0BEFB10BD016C21F008010831016421
:10143000016C21F00401091D0164704730B50246BA
:10144000887A002864D18878012831D10878894BBE
:1014500003EB8000D0F8000CC0F3801098B108783E
:1014600003EB8000D0F8000C48F68F73184040F072
:10147000400040F4004040F080000B787D4C04EBCD
:101480008303C3F8000C0B787A4C04EB8303D3F886
:10149000003C48F6BF7403EA040040F4004343F004
:1014A00080030C78734D05EB8404C4F8003CE0E045
:1014B0000878704B03EB8000D0F8000CC0F380304C
:1014C00088B1087803EB8000D0F8000C48F68F73E1
:1014D000184040F4404040F080000B78654C04EB2D
:1014E0008303C3F8000C0B78624C04EB8303D3F83E
:1014F000003C4BF68F7403EA040040F4004343F0D1
:1015000080030C785B4D05EB8404C4F8003CB0E02C
:101510000878584B03EB8000D0F8000CC0F3801023
:1015200098B1087803EB8000D0F8000C48F68F7370
:10153000184040F0400040F4004040F080000B783C
:101540004C4C04EB8303C3F8000C0878494B03EBC5
:101550008000D0F8000CC0F3803088B1087803EB2D
:101560008000D0F8000C48F68F73184040F44040DB
:1015700040F080000B783F4C04EB8303C3F8000C71
:10158000887801283BD108783A4B03EB8000D0F8EB
:10159000000C48F68F73184040F0400040F40040C3
:1015A00040F080000B78334C04EB8303C3F8000C4D
:1015B0000B7804EB8303D3F8003C48F6BF7403EACE
:1015C000040040F4004343F080030C78294D05EB00
:1015D0008404C4F8003C0B782C4604EB8303D3F856
:1015E000003C4BF68F7403EA040040F4004343F0E0
:1015F00080030C7805EB8404C4F8003C39E00878DB
:101600001C4B03EB8000D0F8000C48F68F73184099
:1016100040F4404040F080000B78164C04EB83030C
:10162000C3F8000C0B7804EB8303D3F8003C48F6B6
:10163000BF7403EA040040F4004343F080030C78D5
:101640000C4D05EB8404C4F8003C0B782C4604EBED
:101650008303D3F8003C4BF68F7403EA040040F494
:10166000004343F080030C7805EB8404C4F8003C8D
:1016700000BF30BD0050004070B50446002308781C
:10168000FA4A02EB8000D0F8000C48F68F72104046
:1016900020F00F004A7810430A78F44D05EB8202DF
:1016A000C2F8000CC87808B96B150EE0C87802289B
:1016B00001D1002309E0C878032801D1430204E0E6
:1016C000C878012801D1830288720878E74A02EBC2
:1016D0008000D0F8000C48F68F72104020F4C060F3
:1016E00018430A78E14D05EB8202C2F8000C8878B5
:1016F00001287DD1887AE8BB8A88DD4805680878AA
:1017000005EBC000DB4D2D6845F810200878D74A5E
:1017100002EB8000D0F8000CC0F3801098B108787C
:1017200002EB8000D0F8000C48F68F72104040F0B9
:10173000400040F4004040F080000A78CB4D05EBBB
:101740008202C2F8000C0A78C84D05EB8202D2F87A
:10175000002C48F6BF7502EA050080F0200040F436
:10176000004242F080020D78C04E06EB8505C5F8B8
:10177000002C06E2FFE70878BC4A02EB8000D0F8B4
:10178000000C40F4807048F68F72104048F28002DE
:1017900010430A78B54D05EB8202C2F8000C8A8826
:1017A000B3480568087805EBC000B24D2D6845F8D0
:1017B0001020CA88AE480568087805EBC000001DF7
:1017C000AC4D2D6845F810200878A84A02EB80003F
:1017D000D0F8000CC0F38010A8B1087802EB8000AC
:1017E000D0F8000C48F68F72104040F0400000E046
:1017F00060E040F4004040F080000A789B4D05EB2B
:101800008202C2F8000C0878984A02EB8000D0F8F7
:10181000000CC0F3803088B1087802EB8000D0F86B
:10182000000C48F68F72104040F4404040F08000B9
:101830000A788E4D05EB8202C2F8000C08788B4ABC
:1018400002EB8000D0F8000C48F68F72104040F494
:10185000404040F080000A78844D05EB8202C2F8D7
:10186000000C0A7805EB8202D2F8002C4BF68F753B
:1018700002EA050040F4004242F080020D787B4EFF
:1018800006EB8505C5F8002C0A78354605EB820283
:10189000D2F8002C48F6BF7502EA050080F020005F
:1018A00040F4004242F080020D7806EB8505C5F851
:1018B000002C66E1887A002868D1CA886C480568DF
:1018C000087805EBC000001D6A4D2D6845F8102012
:1018D0000878664A02EB8000D0F8000CC0F3803034
:1018E00088B1087802EB8000D0F8000C48F68F72BF
:1018F000104040F4404040F080000A785B4D05EB1A
:101900008202C2F8000C5A480568087805EBC0004E
:10191000801D584D2D6805EB40020D893E2D0FDDD1
:101920000D8968110D7A05F01F050DB9451EA8B285
:101930004FF6FF7505EA802545F4004515600CE07B
:101940000D8968100D7A05F001050DB9451CA8B286
:101950004FF6FF7505EA802515600A78434D05EBC3
:101960008202D2F8002C4BF68F7502EA050080F453
:10197000805080F4005040F4004242F080020D7824
:101980003A4E06EB8505C5F8002CFAE00878374A90
:1019900002EB8000D0F8000C40F4807048F68F72A3
:1019A000104048F2800210430A78304D05EB820265
:1019B000C2F8000C8A882E480568087805EBC0003C
:1019C0002C4D2D6845F81020CA88294805680878EC
:1019D00005EBC000001D274D2D6845F81020244858
:1019E0000568087805EBC000801C224D2D6805EBCA
:1019F00040020D893E2D0FDD0D8968110D7A05F02D
:101A00001F050DB9451EA8B24FF6FF7505EA8025E2
:101A100045F4004515600CE00D8968100D7A05F05D
:101A200001050DB9451CA8B24FF6FF7505EA8025E2
:101A300015600F480568087805EBC000801D0D4D46
:101A40002D6805EB40020D893E2D15DD0D896811CD
:101A50000D7A05F01F050DB9451EA8B24FF6FF75AA
:101A600005EA802545F40045156012E0005000406D
:101A7000505C0040080000200D8968100D7A05F0C8
:101A800001050DB9451CA8B24FF6FF7505EA802582
:101A9000156008783B4A02EB8000D0F8000CC0F3D8
:101AA000801098B1087802EB8000D0F8000C48F65E
:101AB0008F72104040F0400040F4004040F0800041
:101AC0000A78304D05EB8202C2F8000C08782D4AE6
:101AD00002EB8000D0F8000CC0F3803088B10878A9
:101AE00002EB8000D0F8000C48F68F72104040F4F2
:101AF000404040F080000A78224D05EB8202C2F897
:101B0000000C08781F4A02EB8000D0F8000C48F661
:101B10008F72104040F0400040F4004040F08000E0
:101B20000A78184D05EB8202C2F8000C0A7805EB22
:101B30008202D2F8002C4BF68F7502EA050080F481
:101B4000805080F4005040F4004242F080020D7852
:101B50000C4E06EB8505C5F8002C0A78354605EBDA
:101B60008202D2F8002C48F6BF7502EA050040F464
:101B7000004242F080020D7806EB8505C5F8002C86
:101B800000BF70BD00500040016C21F008010164ED
:101B9000016C21F0040101647047CA43426470473C
:101BA000012A03D1036C0B43036402E0036C8B43F3
:101BB00003647047F0B50346084F3F6807EB4100E8
:101BC000571C7E101D46002405E030F8027B2F8054
:101BD000801CAD1C641CB442F7D3F0BD080000208B
:101BE000C26C61F30602C264C26C22F080028032D1
:101BF000C2647047F0B504461D4623465E68706AAD
:101C0000202902D021292CD114E01678577846EAF1
:101C10000726977846EA0746D77846EA0766466574
:101C200017795826375457795926375497795A26B1
:101C3000375417E090F854601670B0F85460360AC4
:101C40005670466D360C9670466D360ED670582618
:101C5000365C16715926365C56715A26365C96717A
:101C600000E000BF00BFF0BD2DE9F04706460F467B
:101C70000025A946B046D8F80400446A94F85300F9
:101C800010B90020BDE8F087002084F85300B4F8B4
:101C90005090002504E0201D405D7855681C85B2F9
:101CA000B4F85000A842F6DC4023221D0121404632
:101CB00000F0FEFB4846E5E72DE9F04704460D46F7
:101CC00016464FF0010927467868D0F8248098F826
:101CD000520048B1002088F8520033462A4681213C
:101CE000384600F01FFC01E04FF000094846BDE80F
:101CF000F0870000F0B50346084F3F6807EB41004E
:101D0000571C7E101D46002405E02F8820F8027B1A
:101D1000801CAD1C641CB442F7D3F0BD0800002049
:101D200070B50446002504F5037694F824020228D1
:101D300002D0032817D100E000BF7088012811D11C
:101D4000002084F82702B4F82A0220F00200A4F848
:101D50002A02606804F50371826820469047204695
:101D600000F0AFF903E0204600F0B7F900BF00BF74
:101D7000284670BD70B5024601F08003F3B301F050
:101D80007F0402F10C0303EB44100378434C04EB93
:101D90008303D3F8003CC3F380139BB1037804EBB7
:101DA0008303D3F8003C48F68F74234043F040038C
:101DB00043F4004343F080030478384D05EB84047A
:101DC000C4F8003C0378354C04EB8303D3F8003CA3
:101DD000C3F30113102B5DD10478304D05EB84045F
:101DE000D4F8004C48F6BF7504EA050383F02003DD
:101DF00043F4004444F08004057800E005E0274EF9
:101E000006EB8505C5F8004C44E001F07F0402F5BF
:101E1000867303EB44100378204C04EB8303D3F860
:101E2000003CC3F380338BB1037804EB8303D3F816
:101E3000003C48F68F74234043F4404343F0800352
:101E40000478164D05EB8404C4F8003C0378134C69
:101E500004EB8303D3F8003CC3F30133B3F5805F95
:101E600018D104780D4D05EB8404D4F8004C4BF6E2
:101E70008F7504EA050383F4805383F4005343F41D
:101E8000004444F080040578044E06EB8505C5F84F
:101E9000004C00BF0023C37270BD00000050004022
:101EA00010B504462068FFF7A3FA10BD70B50546CB
:101EB0000E4606F07F0105F10C0000EB4114002EE8
:101EC00044D195F8200202284CD1608B21898842A8
:101ED00011DD608B2189401A6083608B21898842E3
:101EE00001DA608B00E02089034600212846626900
:101EF00000F018FB36E0208B2189884217D1A08B97
:101F00002189884213DBA08BB5F8221288420EDAB1
:101F10000020208300231A461946284600F002FBC1
:101F200000231A463146284600F0C2FA1AE06868D3
:101F3000C06838B195F82402032803D16868C168E5
:101F400028468847284600F09CF80BE068684069FE
:101F500040B195F82402032804D1686831464269EB
:101F60002846904770BD2DE9F04104460D461646BF
:101F70001F46DDF818806660A7602560012084F8A0
:101F80002402204600F0F3F92068FFF73AFABDE892
:101F9000F08170B505460E4606F07F0105F58670A6
:101FA00000EB411426BB95F8200203282CD1608B4E
:101FB0002189884211DD608B2189401A6083608B02
:101FC0002189884201DA608B00E02089034631468E
:101FD0002846626900F06CFA16E06868006918B17A
:101FE0006868016928468847284600F06AF80BE0CF
:101FF0006868806940B195F82402032804D16868B4
:10200000314682692846904770BD70B504460D463A
:1020100004F5057104F5037000F088FE012084F8D2
:10202000200240F21220005BA4F8220294F80C0275
:1020300000F01F0020B1012806D002280CD107E0D3
:10204000204600F055F808E0204600F0EDFC04E0E2
:10205000204600F08DF800E000BF00BF70BDF0B575
:1020600005460E46144605F58677BC837C8303201F
:1020700085F82002234632460021284600F018FA4F
:10208000F0BD10B50446052084F8200200231A464E
:102090001946204600F00CFA10BD2DE9F041054626
:1020A0000E46144605F10C07BC837C83022085F89C
:1020B0002002234632460021284600F033FABDE8CC
:1020C000F08110B50446042084F8200200231A464B
:1020D0001946204600F026FA10BD10B5044600212E
:1020E000204600F0DFFD8021204600F0DBFD10BD22
:1020F00070B50446002504F50376307800F06000E2
:1021000038B1606804F5037182682046904728461C
:1021100070BD40F20D20005D0A2822D2DFE800F0F9
:102120000509210D21111521191D204600F03BFC48
:102130001BE02046FFF7F4FD17E0204600F098FD75
:1021400013E0204600F006FD0FE0204600F093FB70
:102150000BE0204600F064FB07E0204600F024FD81
:1021600003E02046FFF7B9FF00BF00BF2846CFE7D6
:102170002DE9F04104464FF0000804F503773D795E
:10218000387800F0600040B1606804F5037182683F
:10219000204690474046BDE8F081787820B101287C
:1021A0004DD0032873D173E094F82402022802D0A2
:1021B00003283ED11FE005F07F0018B129462046D4
:1021C00000F070FD05F0800030B105F07F0104F1F2
:1021D0000C0000EB411605E005F07F0104F5867068
:1021E00000EB41160020B081022206F10C012046CE
:1021F000FFF753FF21E005F0800030B105F07F01CB
:1022000004F10C0000EB411605E005F07F0104F538
:10221000867000EB4116F07A012801D1B08101E00F
:102220000020B081022206F10C012046FFF735FFA5
:1022300003E02046FFF751FF00BF00BF54E094F8D1
:102240002402022802D003281BD107E02DB1802DE3
:1022500003D02946204600F025FD16E0788878B99D
:1022600005F07F0048B129462046FFF783FD6068EE
:1022700004F503718268204690472046FFF721FF4E
:1022800003E02046FFF729FF00BF00BF2CE027E056
:1022900094F82402022802D003281BD107E02DB1B4
:1022A000802D03D02946204600F0FCFC16E07888FB
:1022B00030B92DB1802D03D02946204600F0F2FC24
:1022C000606804F503718268204690472046FFF756
:1022D000F8FE03E02046FFF700FF00BF00BF03E069
:1022E0002046FFF7FAFE00BF00BF404653E710B597
:1022F00004462068FFF797F810BD10B50446A07A91
:1023000080B9A078012806D1A088B8B92089FFF744
:1023100065F8A08012E0E08880B92089FFF75EF8B8
:10232000E0800BE0A08818B92089FFF757F8A0805B
:10233000E08818B92089FFF751F8E08010BD70B52A
:1023400004460D4605F0800030B105F07F0104F130
:102350000C0000EB411605E005F07F0104F58670E6
:1023600000EB411631462068FFF768F870BD014662
:10237000002000BF2BE001F10C0202EB40121070B4
:1023800001F10C0202EB40125070012301F10C022A
:1023900002EB40129370002301F10C0202EB401299
:1023A000138101F10C0202EB4012536101F10C02A6
:1023B00002EB4012D38101F10C0202EB4012938038
:1023C00001F10C0202EB4012D380421CD0B208286B
:1023D000D1DB00202AE001F5867202EB401210707A
:1023E00001F5867202EB40125070002301F58672EF
:1023F00002EB4012937001F5867202EB40121381DA
:1024000001F5867202EB4012536101F5867202EB10
:102410004012D38101F5867202EB4012D38001F5A0
:10242000867202EB40129380421CD0B20828D2DBA5
:1024300070472DE9F04104462668002705E005F0C5
:102440000F073946204600F0FDF8756C05F4004092
:102450000028F4D1BDE8F0812DE9F04705460E468D
:1024600017469846D5F8009006F0800040B906F06F
:102470007F0105F5867000EB41140020A07007E095
:1024800006F07F0105F10C0000EB41140120A07063
:1024900008F101004FF6FE7108402081E7702046E8
:1024A000FFF72BFF21464846FFF7E6F8BDE8F08727
:1024B0002DE9F0410546144601F07F0705F58672C7
:1024C00002EB471000264461C38100220282C289C8
:1024D0000789BA4204DD0689C289921BC28102E0E3
:1024E0001E460022C2814F06DFF834C00CEBD757DE
:1024F000D7F8007C4BF68F7C07EA0C0282F48052FE
:1025000082F4005242F4004747F080074FEA416CE2
:10251000DFF80C8008EBDC5CCCF8007CBDE8F081D7
:10252000005000402DE9F04707460D469146984679
:1025300005F07F0107F10C0000EB41140026D7F8ED
:1025400000A0C4F81490A4F80E8000202082E08936
:102550002189884204DD2689E089801BE08102E030
:1025600046460020E0812683A07A80B9A1883246C1
:102570006069FFF7BFFB3048016805F07F0001EBA1
:10258000C000801C2D49096841F810603AE005F050
:102590007F005AF82000C0F3801080B126480168FF
:1025A00005F07F0001EBC000801D2449096841F857
:1025B0001060E18832466069FFF79CFB0FE01E481F
:1025C000016805F07F0001EBC000801C1B49096811
:1025D00041F81060A18832466069FFF78BFB6806FE
:1025E000174901EBD050D0F8000C48F68F71084025
:1025F00040F4404040F080006906114A02EBD1519E
:10260000C1F8000C69060E4A02EBD151D1F8001C4A
:1026100048F6BF7201EA020080F0100080F020004E
:1026200040F4004141F080016A06054B03EBD252B1
:10263000C2F8001CBDE8F087505C00400800002094
:10264000005000402DE9F04706460D46D6F80090B0
:1026500059F8258008F0800000283FD006F10C00D2
:1026600000EB45146B4901EB8500D0F8000C48F6EF
:102670000F710840674A02EB8501C1F8000C6648FB
:10268000006800EBC500801C6449096831F810003F
:10269000C0F309002082218A606908446061E089F2
:1026A00000B125B929463046FFF700FC05E0E38973
:1026B000294630466269FFF735FF96F82402022862
:1026C0000BD196F82602002807DD96F8261230680E
:1026D000FFF786FA002086F8260298E006F5867055
:1026E00000EB451408F40060F8B14B48006800EBBB
:1026F000C500801D4949096831F81000C0F3090080
:102700002082228AE18806F50570FFF753FA4248D5
:102710005038006840F68F7108403F4950390860D2
:1027200029463046FFF771FC71E008F400400028AC
:102730006DD0384901EB8500D0F8000C40F68F7160
:102740000840344A02EB8501C1F8000CA07A80B938
:102750003148006800EBC500801D3049096831F838
:102760001000C0F30907E1883A466069FFF722FAD2
:1027700036E008F4804080B12748006800EBC500CF
:10278000801C2649096831F81000C0F30907A188A8
:102790003A466069FFF70EFA0FE01F48006800EB49
:1027A000C500801D1D49096831F81000C0F30907F4
:1027B000E1883A466069FFF7FDF9164901EB8500AB
:1027C000D0F8000C48F68F71084040F0400040F40B
:1027D000004040F080000F4A02EB8501C1F8000C78
:1027E000208A38442082606938446061E08918B1E9
:1027F0002089B84200DC25B929463046FFF7C9FBDD
:1028000005E0E389294630466269FFF751FEBDE8DD
:10281000F087000000500040505C0040080000209D
:1028200070B50446002504F50376F088012803D02E
:102830002046FFF752FC1CE094F82402022802D044
:10284000032811D109E0002084F82802012204F5B0
:102850000A712046FFF721FC0AE0012204F2292137
:102860002046FFF71AFC03E02046FFF736FC00BFC6
:1028700000BF284670BD2DE9F04704460027B84642
:10288000002540F20E20005B0612082E61D2DFE820
:1028900006F06004090E6060575BA1680868804715
:1028A00005465BE0A16888688047054656E040F22F
:1028B0000E2010F80490B9F1030F23D009DCB9F110
:1028C000000F10D0B9F1010F12D0B9F1020F2CD1C5
:1028D00013E0B9F1040F1AD0B9F1050F1CD0B9F10A
:1028E000EE0F22D11DE0A16808698047054625E06A
:1028F000A16848698047054620E0A168886980474B
:1029000005461BE0A168C8698047054616E0A16836
:10291000486A8047054611E0A168086A8047054675
:102920000CE02046FFF7D9FB08E0606804F503716E
:102930008268204690473846BDE8F08700BF0DE02A
:102940002046FFF7CAFB09E02046FFF7C6FB3846E2
:10295000F2E72046FFF7C1FB3846EDE700BFB5B10F
:102960002888A0B140F21220005B80B1298840F293
:102970001220005B814201DA288802E040F2122036
:10298000005B8046424620466968FFF786FB384672
:10299000D2E710B5024601F07F0402F5867000EB25
:1029A0004413188A10BD70B50446002594F824021B
:1029B000022802D0032811D100E000BF94F82702BA
:1029C00028B1B4F82A0240F00200A4F82A02022238
:1029D00004F22A212046FFF760FB03E02046FFF7C0
:1029E0007CFB00BF00BF284670BD30B50B46002100
:1029F00000BF16E00A24B4EB107F05D9302404EBA5
:102A0000107403F8114005E0412404EB10740A3CF3
:102A100003F81140000100254C00641C1D554C1C9E
:102A2000E1B29142E6DB30BD70B50446002504F505
:102A3000037694F82402012804D0022803D0032846
:102A400010D101E000BF00BF606804F50371826827
:102A5000204690470546F08818B915B92046FFF77B
:102A600030FB03E02046FFF738FB00BF00BF2846DD
:102A700070BD2DE9F04107463E68746C356C04F476
:102A8000004010B13846FFF7D4FC04F4806038B140
:102A90004FF480613046FFF780F8384600F037F891
:102AA00004F4007050B105F4007038B14FF40071B7
:102AB0003046FFF772F8384600F04CF904F48070A5
:102AC00038B105F4807020B14FF480713046FFF7C3
:102AD00064F804F4006050B105F4006038B14FF4BC
:102AE00000613046FFF759F8384600F03DF904F42C
:102AF000805050B105F4805038B1384600F067F985
:102B00004FF480513046FFF748F8BDE8F08110B52A
:102B10000446FEF75DFC2046FFF729FC4023002217
:102B200011462046FFF798FC4023002280212046D2
:102B3000FFF792FC00212068FFF752F8012084F88B
:102B400024026068006A20B160680121026A2046A0
:102B5000904710BD2DE9F0410446002704F50375A8
:102B6000A888D0B9E888C0B9A87800F07F0694F8A2
:102B70002402032803D12046FFF7AFFA10E084F8BF
:102B800026621EB1022084F8240202E0012084F8AB
:102B900024022046FFF795FA02E02046FFF79DFA4F
:102BA0003846BDE8F081000070B50446002604F503
:102BB0000375A8782D490870A888002850D1E888A6
:102BC00000284DD194F82402022802D0032842D1D3
:102BD00015E02648007870B12448007884F829026E
:102BE000032084F824026068016820468847204654
:102BF000FFF767FA02E02046FFF763FA2FE01B4871
:102C0000007870B9022084F824021848007884F80B
:102C1000290260684168204688472046FFF751FA3C
:102C200018E094F829021149097888420FD06068A9
:102C30004168204688470D48007884F8290260687A
:102C40000168204688472046FFF73BFA02E020460D
:102C5000FFF737FA03E02046FFF73FFA00BF02E034
:102C60002046FFF73AFA304670BD000014000020FD
:102C700070B50446002504F50376708801280BD151
:102C800084F82702606804F5037182682046904743
:102C90002046FFF716FA02E02046FFF71EFA284604
:102CA00070BD000070B5024601F08003E3B101F091
:102CB0007F0402F10C0303EB441004781A4D05EB7A
:102CC0008404D4F8004C48F6BF7504EA050383F089
:102CD000100343F4004444F080040578124E06EBE0
:102CE0008505C5F8004C1CE001F07F0402F58673F1
:102CF00003EB441004780C4D05EB8404D4F8004C2D
:102D00004BF68F7504EA050383F4805343F40044C3
:102D100044F080040578044E06EB8505C5F8004CA8
:102D200000BF0123C37270BD005000400A780270DA
:102D30004A7842708B78CA7803EB022242800B7982
:102D40004A7903EB022282808B79CA7903EB022253
:102D5000C280704710B504466068C06918B16068E9
:102D6000C1692046884710BD10B5044694F8240276
:102D700084F82502042084F824022046FFF7B7FADD
:102D80006068006A20B160680221026A20469047AC
:102D900010BDF0B50346002002241A460CE0451C85
:102DA000A8B212F8017B2546661CB4B24F55002725
:102DB0002546661CB4B24F551578002DEFD102257B
:102DC00005EB4005A8B2087003254D70F0BD10B5A5
:102DD00004462068FEF7D8FE94F8250284F8240201
:102DE0006068006A20B160680321026A204690474B
:102DF00010BD10B541F62C70FDF7ACFB4FF4FA5046
:102E0000FDF7AEFB41F65470FDF7B0FB0121022047
:102E1000FDF788FB10BD000010B501210148FEF749
:102E2000ABF810BD0203103000B585B01248FDF7B5
:102E30006BFF6846FDF7B1FE0020ADF808008DF885
:102E40000F0001208DF80D0000208DF80E008DF888
:102E50000C0002208DF8110001208DF81000694649
:102E60000548FDF719FF0922012103480838FDF73D
:102E7000C7FE05B000BD00000800024000B585B0E7
:102E80001248FDF741FF6846FDF787FE1020ADF8B8
:102E9000080000208DF80F0001208DF80D000020A3
:102EA0008DF80E008DF80C0002208DF81100002026
:102EB0008DF8100069460548FDF7EEFE0A22022152
:102EC00002481C38FDF79CFE05B000BD1C00024006
:102ED00043608160C26070471CB56846FDF7ECFF37
:102EE00001210B48FDF7E4FF02208DF807000020C8
:102EF0008DF8040010208DF80600012000900420B9
:102F00008DF8050069460248FDF7E1FF1CBD000091
:102F1000000C014070B50320FEF7F6F8FDF7E6FA65
:102F2000054600221146FDF760FA044621466FF07F
:102F30000B00FDF7E3FAFDF7D9FA0546002211462A
:102F4000FDF753FA044621466FF00A00FDF7D6FA62
:102F5000FDF7CCFA054600221146FDF746FA044675
:102F600021466FF00900FDF7C9FAFDF7BFFA0546E3
:102F700000221146FDF739FA044621466FF004009D
:102F8000FDF7BCFAFDF7B2FA054600221146FDF73F
:102F90002CFA044621466FF00300FDF7AFFAFDF767
:102FA000A5FA054600221146FDF71FFA0446214600
:102FB0006FF00100FDF7A2FAFDF798FA054600222E
:102FC0000F21FDF712FA044621464FF0FF30FDF7BE
:102FD00095FA002211460B20FEF732F80022114626
:102FE0004A20FEF72DF870BD10B501214FF4A01056
:102FF000FDF702FD01214FF4C010FDF7FDFC01219A
:103000000D48FDF7F9FC01210B48401CFDF7F4FCCD
:1030100001210948C01CFDF7EFFC012106480A30D8
:10302000FDF7EAFC012104481430FDF7E5FC01211D
:103030000248FDF7E1FC10BD0200180017001C005B
:103040001FB502A8FDF738FF6846FEF77BF802209F
:103050008DF80F0000208DF80C0008208DF80E0070
:103060002020029004208DF80D0002A92948FDF7C8
:103070002EFF02208DF80F0000208DF80C008DF837
:103080000E004020029004208DF80D0002A9214876
:10309000FDF71DFF02208DF80F0000208DF80C00B9
:1030A00008208DF80E008020029004208DF80D007D
:1030B00002A91848FDF70BFF00208DF80000012041
:1030C0008DF8010000208DF804008DF80300022027
:1030D0008DF8020001208DF805008DF806008DF8AE
:1030E000070069460C48FEF751F807210A48FEF729
:1030F00024F801210848FEF71BF801210648FEF7D5
:1031000038F801210448FEF72FF801210248FEF7A4
:1031100024F81FBD000801400030014010B5FDF744
:10312000CBFC01210420FDF759FB00BF2048FDF72F
:103130001BFC0128FAD101210846FDF74FFB00BF17
:10314000FDF72AFC0028FBD001210020FDF746FBFB
:1031500000BF0120FDF708FC0128FAD101221D2142
:103160001046FDF76BFC01210220FDF737FB00BF85
:103170001920FDF7F9FB0128FAD10020FDF7FCFA30
:103180000420FDF70DFB0420FDF700FB0120FDF7F7
:1031900011FB0220FDF7BCFC00BFFDF7D7FC0228A5
:1031A000FBD10020FDF706FBFEF782F810BD000002
:1031B0000100240010B586B0002401A8FDF73EFBF5
:1031C000029C0420FEF7F0F80948B4FBF0F009492E
:1031D000086000204FF0E02188616FF07F40486177
:1031E0000846006940F00100086106B010BD00000B
:1031F00040420F000000002008B50020054B064AA1
:10320000064900900648FEF7AEFE0548FEF748FE68
:1032100008BD0000640000203C000020005C00406D
:103220002C010020F0B52DED028BA1B000241C4D27
:103230001C48FDF799F8B0EE408A8DED008A01AA8E
:1032400001216846FDF7F1F80646324601A9164805
:10325000FEF732FD074615491348FEF705FD044603
:103260001CB913480078012815D114B10120104968
:10327000087014B900200E49087000BFA2B20B49B3
:103280000948FEF719FD012800D103E0281EA5F129
:103290000105F3D100BF21B0BDEC028BF0BD0000F1
:1032A000404B4C00180000202C0100205803002047
:1032B0000400002010B50120FDF760FC0120FDF79F
:1032C0004DFC10BD10B50248FFF7D3FB10BD000048
:1032D0002C0100204FF04070E1EE100A7047000012
:1032E00000000000000001020304060708090000B6
:1032F00000000102030400000000010203040204B4
:103300000608020C08100000000000000000010286
:1033100003040607080900003833000800000020F5
:103320002C010000C0010008043400082C0100201A
:10333000EC0B00001C020008911260434040631235
:103340007A14300140350C014001121C1C02400867
:1033500004912AC21612081347061408B1051B0867
:10336000BB081A0D041AD50C1A31081A91041371EE
:10337000071B0813081358051420B90D1C08690E03
:103380002C19081A2D081AFD081A05081A31041AF2
:103390006D041AC1101A7904131201230202164097
:1033A0003C2E40571D02010203671C0902430B110A
:1033B00025C03209041B01020B1305241610010558
:1033C000240110090104240202052406170107053F
:1033D0008203081CFF090441320A2C070581AE3C18
:1033E000070501B5071A040309041A033212228CD7
:1033F0003320431AA008196A111AE408321A1AE88D
:04340000088100003F
:040000050800018569
:00000001FF
