:020000040800F2
:10000000780B00209D010008E50900084709000859
:10001000E109000841090008690B00080000000020
:10002000000000000000000000000000C50A0008F9
:100030004509000800000000670A0008C70A000818
:10004000B7010008B7010008B7010008B7010008B0
:10005000B7010008B7010008B7010008B7010008A0
:10006000B7010008B7010008B7010008B701000890
:10007000B7010008B7010008B7010008B701000880
:10008000B7010008B7010008B7010008B701000870
:10009000B7010008B7010008B7010008B701000860
:1000A000B7010008B7010008B7010008B701000850
:1000B000390B0008B7010008B7010008B7010008B4
:1000C000B7010008B7010008B7010008690A000875
:1000D000B7010008B7010008B7010008B701000820
:1000E000B7010008B7010008B7010008B701000810
:1000F000B7010008B7010008B7010008B701000800
:10010000B7010008B7010008B7010008B7010008EF
:10011000B7010008B7010008B7010008B7010008DF
:10012000B7010008B7010008B7010008B7010008CF
:10013000B7010008B7010008B7010008B7010008BF
:1001400000000000000000000000000000000000AF
:10015000B7010008B7010008B7010008B70100089F
:10016000B7010008B7010008610B0008B7010008DB
:10017000B7010008B7010008B7010008B70100087F
:10018000B7010008DFF810D000F0DCFA00480047A3
:1001900095220008AFF30080780B002006488047C6
:1001A00006480047FEE7FEE7FEE7FEE7FEE7FEE75C
:1001B000FEE7FEE7FEE7FEE7C90A00088501000842
:1001C00000F0004230F000400AD0C10D01F560712E
:1001D000C0F3160042EA0151C208400711437047BC
:1001E000002001467047000030B5041E71F1000484
:1001F00004DB4FF00044404264EB0101141E73F134
:10020000000405DB1C464FF00043524263EB04033D
:100210008B4208BF824230BD01F0004330B421F070
:10022000004150EA010206D00A0DA2F56072C1F346
:100230001301002A02DC30BC00207047440F44EA5E
:10024000C104C100E01830BC00EBC25000F047B858
:1002500030B50B46014600202022012409E021FA96
:1002600002F59D4205D303FA02F5491B04FA02F593
:100270002844151EA2F10102F1DC30BD2DE9F05F2A
:100280000546002092469B46884606468146402405
:100290001BE0284641464746224600F074FA534682
:1002A0005A46C01A914110D311461846224600F012
:1002B0005BFA2D1A67EB01084F4622460120002108
:1002C00000F052FA17EB00094E41201EA4F1010480
:1002D000DFDC484631462A464346BDE8F09F002908
:1002E000A8BF7047401C490008BF20F001007047BC
:1002F00010B4B0FA80FC00FA0CF050EA010404BF1C
:1003000010BC704749B1CCF1200421FA04F411FA71
:100310000CF118BF012121430843A3EB0C01CB1DB5
:100320004FEA00614FEA102042BF002010BC704726
:1003300000EBC35010440029A4BF10BC7047401C00
:10034000490008BF20F0010010BC70472DE9FE4FA6
:10035000804681EA0300C00F0C46009021F0004166
:1003600023F00045B8EB0200A94105D240462146E2
:1003700090461C460B46024623F00040104347D0EF
:10038000270DC7F30A00C3F30A510290401A0190E7
:1003900040286BDAC3F3130040F4801B00989246A8
:1003A00020B10023D2EB030A63EB0B0B01985946F3
:1003B000C0F14002504600F0D7F906460D465046BF
:1003C0005946019A00F0EFF910EB08006141002452
:1003D00087EA115284EAE7731A4340D0009A62B365
:1003E000019A012A4FEA075215DC001B61EB02015A
:1003F0004FF0004202EA0752CDE90042001C41F5ED
:10040000801132462B4600F0EFF903B0BDE8F08FC3
:1004100040462146F9E7001B61EB0201001C41F553
:10042000801300185B412018A2F5001747EB030169
:1004300040EAD570B6196D4111E06D084FEA3606F5
:1004400045EAC0754FEA0752001B61EB0201001C30
:1004500041F5801149084FEA3000001951413246F8
:100460002B4603B0BDE8F04F00F0AFB90098012271
:1004700040000023D0EB020263EBE07300982146BA
:100480004FEAE074B8EB000061EB0401E9E783F0A8
:1004900000435BE781F0004158E72DE9FE4F81EA18
:1004A000030404F0004421F0004100944FF0000BDD
:1004B00023F0004350EA01045ED052EA03045BD00B
:1004C000C3F30A54C1F30A552C44A4F2F334019443
:1004D000A0FB0254C1F3130141F48011C3F31303D1
:1004E00043F4801301FB024400FB034E840A970A85
:1004F00044EA815447EA8357A4FB076802958D0AB2
:1005000005FB07854FEA932C04FB0C542705029D3D
:100510004FEA065847EA1637B5EB08056EEB070CAD
:10052000870E920E47EA811742EA8312A7FB020167
:10053000B6EB0B0164EB00042B0D43EA0C335E18A1
:1005400044EB1C50DA465146E7FB0201C5F31304A5
:100550004FEA0B3343EA14534FEA0432019C43EA57
:100560000603A4F10C040294009CCDE900B400F051
:100570003BF903B0BDE8F08F00200146F9E72DE913
:10058000F04D81EA030404F0004B21F000451446CD
:100590004FF0000A23F0004150EA050220D054EA4F
:1005A00001021DD0C5F30A570246C5F31303C1F378
:1005B0001300C1F30A5640F4801543F48013A7EBEF
:1005C0000608101BD64608F2FD3873EB050002D36F
:1005D00008F1010801E092185B41B8F1000F03DA5D
:1005E00000200146BDE8F08D00204FF48011064642
:1005F00084460EE0171B73EB050705D3121B63EB54
:10060000050306434CEA010C49084FEA30009218F2
:100610005B4150EA0107EDD152EA030012D082EAB1
:10062000040083EA0501084305D0101BAB4106D244
:100630000122002306E000224FF0004302E06FF0A9
:10064000010253101AEB06004CEB085110EB0A00A4
:1006500041EB0B01BDE8F04D00F0B7B82DE9FE4FBE
:10066000C3F30A5701F000450024C1F30A56C3F34F
:100670001303C1F3130143F4801312EB020AA646DD
:1006800041F48011009543EB030CA7F1010B16E038
:10069000B0EB0A0061EB0C01071E71F1000707DAED
:1006A0004FF00008D0EB080085F0004568EB010131
:1006B000171A73EB0107EBD3761E001849415E450C
:1006C000F6DA50EA010209D0CDE900E5002213462E
:1006D000029600F089F803B0BDE8F08F204600993B
:1006E000F9E7C1F30A52C1F3130140F2FF3341F4B9
:1006F00080119A4202DA00200146704740F23343EB
:100700009A42A2F2334202DC524200F03CB800F0BE
:100710002BB8000030B5041E71F1000404DB4FF06B
:100720000044404264EB0101141E73F1000405DB38
:100730001C464FF00043524263EB0403994208BF4A
:10074000904230BD064C074D06E0E06840F00103E2
:1007500094E8070098471034AC42F6D3FFF716FD33
:10076000E84E0008084F0008202A04DB203A00FA6F
:1007700002F1002070479140C2F1200320FA03F3F8
:10078000194390407047202A04DB203A21FA02F0F6
:100790000021704721FA02F3D040C2F120029140BB
:1007A000084319467047202A06DBCB17203A41FA46
:1007B00002F043EAE07306E041FA02F3D040C2F1EE
:1007C0002002914008431946704710B5141E73F17A
:1007D000000408DA401C41F1000192185B411A4301
:1007E00001D120F0010010BD2DE9F04D92469B464D
:1007F00011B1B1FA81F202E0B0FA80F220329046F3
:10080000FFF7B2FF04460F4640EA0A0041EA0B0137
:1008100053465A46084313D0114653EA010019D0F3
:10082000C8F140025046FFF7AEFF05460E4650465F
:1008300059464246FFF798FF084305D0012004E0DF
:1008400020463946BDE8F08D0020054346EAE076B3
:100850002C4337430A986305E40AA0EB0800002202
:10086000FD0A44EA47540A3002D500200146E9E770
:10087000010510196941DDE9084500196941BDE824
:10088000F04DA2E770B58C1810F8015B15F0070366
:1008900001D110F8013B2A1106D110F8012B03E019
:1008A00010F8016B01F8016B5B1EF9D12B0705D421
:1008B0000023521E0DD401F8013BFAE710F8013B6A
:1008C000CB1A921C03E013F8015B01F8015B521E86
:1008D000F9D5A142D8D3002070BD000010B52DED90
:1008E000068BB0EE408A18EE100AFFF769FC41EC67
:1008F0001A0B9FED101BB0EE4A0AF0EE6A0A00F0E8
:1009000075F9B0EE409AF0EE609A51EC190BFFF7D2
:1009100083FC08EE900AF5EEC08AF1EE10FA04DBD3
:10092000B0EE680ABDEC068B10BD9FED040A38EEF0
:10093000800AF7E700000000FA211940D00FC940F3
:1009400000BFFEE7704700BFFEE700002DE9F04161
:100950002DED028B04462189606801F0FFFB2046E3
:1009600000F083F80546204600F07FF80646204652
:1009700000F07BF807462189606801F0F1FB28044C
:1009800040EA06203843801208EE100AB8EE480A02
:10099000DFED0C0A20EE200ADFED0B0A80EE201AB4
:1009A000F0EE418A9FED090A28EE800ADFED050A84
:1009B00080EE201A84ED031A94ED030ABDEC028B3D
:1009C000BDE8F0810000B44300008046D00FC9406C
:1009D00010B50248FFF7BAFF10BD00001800002054
:1009E00000BFFEE77047F0B503460C4603F0070171
:1009F000C1F10700042801D9042001E0C1F107007A
:100A00000646081D072801D2002000E0C81E054642
:100A10000120B040401E2040A8400127AF407F1E6B
:100A200017403843F0BD30B503461C46002003E0B4
:100A3000255C1554451CE8B2B0EB810FF8DB0020B3
:100A400002F82100012505EB810550558020022583
:100A500005EB810550557F20032505EB8105505599
:100A60008800001D30BD7047704770B504460025F2
:100A70002189606801F072FB06E0681C80B20546BF
:100A80000A2801DD002070BD0221206801F002FE6D
:100A90000028F2D00021206801F0FAFD002506E0D0
:100AA000681C80B205460A2801DD0020EBE7012121
:100AB000206801F0EFFD0028F2D0206801F0E4FD8D
:100AC000C0B2E0E7704770471848006840F4700013
:100AD000164908601648006820F00100401C1449BF
:100AE000086000BF12480068C0F340000028F9D039
:100AF0000F48406820F003000D49486000BF0C48D3
:100B00004068C0F381000028F9D10948006809490C
:100B10000840074908600020486008634FF41F0040
:100B20008860C803014980390860704788ED00E09B
:100B300000100240FFFFF2FE10B50848FFF706FF65
:100B40000648D0ED030AB0EE600A0021084601F025
:100B500047FC0121880701F08EFF10BD180000201E
:100B600010B504F09DF910BD00BFFEE77CB50C0088
:100B70001D461646014601D0601E00E00020CDE96A
:100B80000010064B6A462946304600F0A9F9002CB1
:100B900002D0009A002111707CBD0000E71500080A
:100BA00002480068C0F30220704700000CED00E02E
:100BB00010B5002804DB0A07130E054A135406E09B
:100BC0000A07140E034A00F00F031B1FD45410BD74
:100BD00000E400E018ED00E02DED020B019820F09C
:100BE000004001909DED000B02B0704710B52DED57
:100BF000040B86B09DED060B10EE100A10EE901A55
:100C00008DED000B002818BF0120084320F00040A4
:100C1000C0F17F6000F1E040C00F21D19DED080BD5
:100C200010EE101A10EE900A8DED000B002918BF7F
:100C30000121084320F00040C0F17F6000F1E04056
:100C4000C00F0DD129490798B1EB400F04BF06989A
:100C5000002842D00998400004BF089800283CD0E2
:100C60009DED080B53EC102B9DED060B51EC100B7A
:100C7000FFF7F4FCCDE902019DED020B40F2FF719C
:100C800010EE900A8DED000B31EA105021D007983C
:100C9000039900F0004001F00041884219D09DED19
:100CA000080B8DED040B9DED020B8DED000B10EE8E
:100CB000900A059961F31E0005909DED041B9DEDC2
:100CC000020B51EC110B53EC102BFFF7E3FBCDE9BA
:100CD00002019DED020B0AB010BD012000F028F8C2
:100CE0000AB0BDE8104000F003B800000000E0FFCB
:100CF0009FED050B10B553EC102B51EC100BFFF7CB
:100D00003EFC41EC100B10BD000000000000000094
:100D100002E008C8121F08C1002AFAD170477047C4
:100D2000002001E001C1121F002AFBD17047000022
:100D300001490860704700006801002010B52DEDE2
:100D4000028BB0EE408AF1EE0C0A68EE200AB0EE9B
:100D5000600AFFF7C3FDBDEC028B10BD2DE9FF5FFC
:100D600082B00021DDE90430020DDDF840B003431C
:100D700018D044F61050A2F2FF32424315141198D5
:100D800001281FD0A5EB0B00401C5FEA000A4FF0C2
:100D900000064E4FDFF83891B046504615D5CAF1DF
:100DA000000413E0119801244AA3012801D16FEA3D
:100DB0000B010298119AC0E90031C0E9024206B065
:100DC000BDE8F09FCBF10000DFE704460021404A78
:100DD000491842EB0450CDE9001012E0E00707D0BB
:100DE00032463B4640464946FFF757FB8046894618
:100DF00032463B4610461946FFF74FFB06460F4664
:100E00006410002CEAD1DDE90401DDE90023BAF128
:100E1000000F06DAFFF741FB42464B46FFF73DFB6A
:100E200005E0FFF7ACFB42464B46FFF7A8FB044644
:100E30000E460022284BFFF76DFC03D84FF0FF3021
:100E4000014607E00022254B20463146FFF77EFA97
:100E5000FFF747FC102409E0002C0ADB0A220023DC
:100E6000FFF70CFA039B30321A55641E50EA010258
:100E7000F2D1641C039AC4F111031444119A012A9B
:100E800003D0012208430DD10AE0084304D000201A
:100E90004FF0110B119072E7A3EB0B056D1E0DE0E7
:100EA0005B4504DD4FF0000205F1010504E003DAC3
:100EB0004FF00002A5F10105002AECD0029811992B
:100EC000C0E90231C0E9004579E7000000001440A4
:100ED0000000F03F300000000000F0430000E03F61
:100EE0002DE9FF4F95B09A46884606460025EEE16B
:100EF000252877D100242746F94A0121039400E0F0
:100F0000044316F8013F203B01FA03F01042F7D1E9
:100F100030782A2811D06FF02F033078A0F13002FA
:100F2000092A16D8039A44F0020402EB820203EB6A
:100F300042021044761C0390EFE758F8042B03920A
:100F4000002A03DA504244F40054039044F00204AF
:100F5000761C30782E2816D116F8010F44F00404C0
:100F60002A280DD06FF02F023078A0F13003092B22
:100F700009D807EB870302EB4303C718761CF3E796
:100F800058F8047B761C30786C280FD006DC4C288F
:100F900017D068280DD06A2814D104E0742810D026
:100FA0007A280FD10DE044F400140AE044F48014D0
:100FB00001E044F440147278824202D104F58014B6
:100FC000761C761C307866280BD013DC582877D036
:100FD00009DC002875D04528F6D04628F4D04728EB
:100FE0001AD193E118E0632835D0642879D06528B8
:100FF00012D18BE1702873D008DC6728F1D0692802
:101000006FD06E280DD06F2806D1ACE073282CD09D
:10101000752874D0782853D05246179990476D1C84
:1010200054E1C4F30250022809D003280DD0D8F8A7
:10103000001004280DD00D6008F1040846E1D8F82E
:101040000010EA17C1E90052F6E7D8F800100D8049
:10105000F2E70D70F0E718F8041B8DF8001000207F
:101060008DF80100EB46012003E058F804BB4FF077
:10107000FF3061074FF0000102D40DE009F10101DA
:101080008946B9420FDA8145F8DB1BF809100029BF
:10109000F4D108E009F1010189468142FADB1BF82D
:1010A00009100029F6D103985346A0EB0907214601
:1010B0003846179A00F080FA284400EB090507E04B
:1010C00044E008E10DE01BF8010B524617999047E8
:1010D000B9F10109F7D2534621463846179AF2E092
:1010E00039E00A21C4F302524FF0000B0091022AAA
:1010F00006D058F8040BC117032A09D00AE023E0F0
:1011000008F1070020F00702F2E80201904605E02E
:1011100000B2C117042A01D140B2C117002906DA72
:101120000A460021404261EB02012D2202E0220525
:1011300004D52B228DF80420012203E0E20701D020
:101140002022F7E7914657E00A2100E010214FF0F6
:10115000000B00910BE010214FF0000B44F0040451
:101160000827009103E008204FF0000B0090C4F323
:101170000252022A05D058F8040B0021032A08D095
:1011800008E008F1070020F00702F2E802019046AB
:1011900003E080B2042A00D1C0B24FF00009220758
:1011A0002AD53278702A07D0DDF800C08CF0100CF8
:1011B0005CEA0B0C05D00EE040228DF804200122E1
:1011C00008E050EA010306D030238DF804308DF892
:1011D000052002229146009B83F0080353EA0B038B
:1011E0000AD150EA010201D1620705D530228DF8FB
:1011F00004204FF001097F1E3278582A04D039A20A
:101200000C920CAA02920BE03BA2F9E75B46009A13
:10121000FFF734F80C9B9B5C029A521E02921370EB
:1012200050EA0102F2D1029804A9081A00F1200B39
:10123000600702D524F4803400E001275F4502DD19
:10124000A7EB0B0000E0002000EB0B0100900398DF
:101250004944401A0390E00306D453462146179AA6
:10126000039800F0A9F90544002706E001A85246BA
:10127000C05D179990476D1C7F1C4F45F6DBE0035E
:101280000CD553462146179A039800F095F905446A
:1012900004E030205246179990476D1C0099481E73
:1012A00000900029F5DC08E0029802995246007887
:1012B000491C0291179990476D1CBBF10001ABF1DD
:1012C000010BF1DC5BE100F065F90544761C307838
:1012D00000287FF40DAE19B02846BDE8F08F00005D
:1012E00009280100303132333435363738396162FC
:1012F00063646566000000003031323334353637C0
:10130000383941424344454600000000600700D49C
:10131000062708F1070020F00700F0E802238046C6
:1013200003F0004C5FEA0C0001D097A009E0200513
:1013300001D596A005E0E00701D095A001E0AFF24D
:101340004C001390307823F0004365280CD006DC65
:10135000452809D046281DD047287FD13BE0662884
:1013600018D067287AD136E00021112F01DB112037
:1013700000E0781CCDE9000104A90CA8FFF7EEFC01
:10138000DDE90D010C9A4FF0000B07F101091092F5
:1013900000914EE04FF000400097CDE9011004A904
:1013A0000CA8FFF7DBFCDDE90D020C9B0F994FF059
:1013B000000B91461093009211B9791C00EB0109C2
:1013C000B7EB090003D4C0F1FF3B07F10109A9EB1A
:1013D0000700019042E0012F00DA01270021112FC0
:1013E00001DD112000E03846CDE9000104A90CA878
:1013F000FFF7B4FCDDE90D010C9A00914FF0000BF2
:10140000B946109221070FD4009A4A4503DA914653
:1014100001E0A9F10109B9F1010F05DD109AA9F167
:101420000101515C3029F4D0B84202DA10F1040F06
:1014300003DA0121CDE9011010E0002803DC834428
:10144000A9EB000102E0411C494500DD8946A0EB03
:101450000B00401C01904FF000400290200705D483
:101460000198484502DB4FF0FF30019000208DF8D5
:101470004B0002980DF14B07B0F1004F25D0022030
:101480000C902B200D90029800280CDA404202901C
:101490002D200D9007E00A210298FEF7D9FE303189
:1014A000029007F8011D0C99481E0C900029F2DCEF
:1014B00002980028EFD1791E0D980870307800F05E
:1014C000200040F0450007F8020D11A8C01BC01D08
:1014D00002901398007800B1012000EB09010198F7
:1014E00001EBE071029801440398401A401E0390FA
:1014F000E00306D453462146179A039800F05CF89F
:1015000005441398007818B15246179990476D1CFE
:10151000E00323D553462146179A039800F04CF870
:1015200005441BE0BBF1000F07DB0098584504DDC4
:101530001098179910F80B0001E0179930205246C7
:10154000904701980BF1010B401E05F10105019038
:1015500004D12E205246179990476D1CB9F1000115
:10156000A9F10109DEDC05E017F8010B52461799D5
:1015700090476D1C0299481E02900029F4DC5346E6
:101580002146179A03989EE62D0000002B000000CC
:10159000200000002DE9F041044600251E461746B4
:1015A000880404D405E039462020B0476D1C641E31
:1015B000F9D52846BDE8F0812DE9F0410446002523
:1015C0001E469046C80301D5302700E02027880436
:1015D00004D505E041463846B0476D1C641EF9D578
:1015E0002846BDE8F0814A68002A06D00A68531CE4
:1015F0000B6010704868401E4860704730B90A4A56
:10160000126822F00202084B1A6006E0064A1268CD
:1016100022F00202921C044B1A60034A126861F322
:101620000002014B1A6070470458014001490860EC
:10163000704700000C5801400149086070470000E5
:1016400010580140014908607047000014580140DB
:1016500070B52DED068B82B004460821294800F0B4
:101660007DFDB7EE000A01F0AFF84FF4FA6000F02C
:101670008FFB9FED250AB0EE408A0A25002611E077
:10168000A047F0EE408AFFF759FBA047F0EE408AF2
:10169000FFF754FB30EE080AB0EE408A0A2000F053
:1016A00077FB761CAE42EBDB00EE105AB8EEC00AB8
:1016B000C8EE000A1548C0ED000AA047F0EE408AC7
:1016C00000F066FC10EE106A3046FEF779FD41EC42
:1016D000190B0E480068FEF773FD41EC1A0B8DEDF7
:1016E000009B53EC1A2B0AA001F0F0FE0FA001F0B2
:1016F000EDFE1021034800F033FD02B0BDEC068B77
:1017000070BD0000000C0140000000002800002017
:10171000E99BB6E794B5E4BD8DE8A792E5BAA6EFDC
:10172000BC9A2025662C256C660D0A00E5889DE58F
:10173000A78BE58C96E5AE8CE688905C720A00007B
:101740000146012081F85200002081F85300086012
:10175000084800684865074882795A20425405487D
:1017600002795820425403484279592042540020BB
:10177000704700007000002070B504460025264622
:101780008221304602F08DFA8121304602F089FA3A
:101790000121304602F085FA284670BD2DE9F0415E
:1017A0000446002726467068456A0021304602F04C
:1017B000A2FD804695F84C00202808D11FFA88F336
:1017C00095F84C1005F14402204601F0C5FE38465C
:1017D000BDE8F08101460020704702460020012943
:1017E00004D0022903D0032903D101E002E001E083
:1017F00000E000BF00BF704730B502460C461146FE
:101800004D686B6A0020012583F8525030BD2DE9E8
:10181000F0410446002725466868466A08230322EB
:101820008221284602F0CAFA40230222812128465A
:1018300002F0C4FA402302220121284602F0BEFA37
:101840004023321D0121284602F0E4FA3046FFF71A
:1018500077FF3846BDE8F0812DE9F04104460F4698
:101860004FF0000825466868466A3946284602F067
:1018700042FDA6F85000012086F853004046BDE81E
:10188000F0812DE9F04106460C464FF0000837463E
:101890007868456A207800F0600010B3202843D1B2
:1018A000E088E8B1207800F0800068B1E3886178D2
:1018B00005F14402304601F04FFEE28805F1440193
:1018C000384602F09CF80BE0607805F84C0FE08891
:1018D00068806A884C3D05F14401384602F071F891
:1018E00026E0607806280AD004DC012814D00328FA
:1018F00014D112E00A2806D00B280FD109E038468F
:1019000002F09DF80EE001222946384602F077F8F1
:1019100008E06088286005E004E003E0384602F053
:101920008EF800BF00BF03E0384602F088F800BF21
:1019300000BF4046BDE8F08101460020704700002E
:101940000349496860F30711014A5160704700007C
:10195000001002400349496860F30A21014A5160BE
:1019600070470000001002400349496860F3CD2130
:10197000014A51607047000000100240012807D161
:101980000749496D21F030013031054A516505E0C4
:101990000349496D21F03001014A5165704700004B
:1019A00000100240052827D2DFE800F0030A1118D2
:1019B0001F00134A126861F30002114B1A601CE009
:1019C0000F4A126861F310420D4B1A6015E00C4A81
:1019D000126861F318620A4B1A600EE0084A126A34
:1019E00061F30002064B1A6207E0054A526A61F38E
:1019F0000002034B5A6200E000BF00BF70470000C6
:101A0000001002402DE9F041014600270022002588
:101A100090460023002400F07DF9064626B1012EF1
:101A200012D0022E43D112E03948406DC0F340205D
:101A300038B13748006BC0F3406010B135480860DA
:101A400001E03548086035E03348086032E030484E
:101A50004068C0F300482E484068C0F383422C48D9
:101A60004068C0F341750DB90F2A03D12801401C0D
:101A7000024400E0921CB8F1000F03D12748504304
:101A8000086013E022484068C0F3404058B1204845
:101A9000406DC0F30137B81CDFF87CC0BCFBF0F030
:101AA0005043086002E01C485043086002E01A48B6
:101AB000086000BF00BF16484068C0F30313184811
:101AC000C45C0868E040486011484068C0F30223E5
:101AD0001448C45C4868E040C8600D484068C0F3E2
:101AE000C2231148C45C4868E040886008484068E8
:101AF000C0F3007306484068C0F3813040EA8303B6
:101B00000A48C45C8868B0FBF4F00861BDE8F08165
:101B100000100240006CDC0200127A0000093D0057
:101B2000B04E0008C04E0008C84E0008D04E000855
:101B300010B501460020094B03EB1142126801F079
:101B40001F040123A3401A4001F01F040123A340F6
:101B50009A4200D000E0012010BD000000100240B9
:101B600030B50024002500E0641C1120FFF7E0FFE1
:101B7000012802D0B4F5405FF6D31120FFF7D8FF5B
:101B8000012801D0002500E00125284630BD0000D5
:101B90000349096B60F35961014A11637047000002
:101BA0000010024000B503460120FFF7F1FF034893
:101BB000406D63F349200149486500BD00100240B3
:101BC00010B501290DD10E4B03EB1042126800F045
:101BD0001F040123A3401A43094C04EB10431A606D
:101BE0000CE0074B03EB1042126800F01F040123C6
:101BF000A3409A43024C04EB10431A6010BD00004E
:101C00000010024010B568B91C4B5B6823F48033A8
:101C10001A4C636023461B6B23F0007303F10073BF
:101C2000236317E0154B5B6823F4803303F580339F
:101C3000124C6360012805D123465B6823F400330E
:101C4000636007E00D4B5B6823F4003303F500335A
:101C50000A4C6360094B5B6861F39543074C636012
:101C60000C09064B5B6864F35E73044C63602346A7
:101C70005B6862F3DF73636010BD00000010024018
:101C80001348006820F00100401C1149086000BFA3
:101C90000F480068C0F340000028F9D00C484068A5
:101CA00020F003000A49486000BF09484068C0F3BB
:101CB00081000028F9D10648006806490840044917
:101CC00008600020486008634FF41F008860704778
:101CD00000100240FFFFF2FE0D49496860F3010168
:101CE0000B4A516000BF00BF00BF00BF00BF00BF74
:101CF00000BF00BF00BF00BF00BF00BF00BF00BFEC
:101D000000BF00BF00BF00BF00BF00BF70470000A2
:101D10000010024002484068C0F381007047000094
:101D20000010024010B50446012C01D1FFF73AFF24
:101D30000348406D64F308200149486510BD000068
:101D4000001002400349C96D60F30001014AD165EA
:101D5000704700000010024010B5042000F028FE7B
:101D6000074800680749B0FBF1F0074908600846DA
:101D700000684FF47A7148430449086010BD0000C0
:101D80001000002040420F00680000206C0000207E
:101D9000002131E032280ADD194A126832235A4301
:101DA0004FF0E0235A61A0F1320290B206E0144AEB
:101DB000126842434FF0E0235A61002000224FF0A6
:101DC000E0239A611A46126942F001021A6100BFCB
:101DD0004FF0E022116901F001021AB101F48032E2
:101DE000002AF5D04FF0E022126922F001024FF0F4
:101DF000E0231A6100229A610028CBD170470000CD
:101E00006C000020F0EE400A9FED270A20EE800AC9
:101E1000BDEEC00A10EE100A00EE100AB8EEC01AAD
:101E2000DFED221AB0EE600A01EE610AF0EE400A20
:101E300000F0010179B1F5EEC00AF1EE10FA04DD0F
:101E40009FED1A0A30EEC00A03E09FED180A30EE4B
:101E5000800AF0EE400A20EEA00ADFED151AB0EE7F
:101E6000611ADFED141A41EE001AB0EE611ADFEDCF
:101E7000121A41EE001AB0EE611ADFED101A41EEAF
:101E8000001AB0EE611ADFED0E1A41EE001AB0EE44
:101E9000611ADFED0C1A41EE001A20EEA01AB7EE1F
:101EA000000A01EE210A704783F9A23EDA0F494089
:101EB000F2A3ED30017591B4B3CCCF371408B6BAA4
:101EC00083AA2A3DFDFFFFBEF0EE400A9FED280ADF
:101ED00020EE800ABDEEC00A10EE100A00EE100AD5
:101EE000B8EEC01ADFED231AB0EE600A01EE610A07
:101EF000F0EE400A00F0010179B1F5EEC00AF1EE12
:101F000010FA04DD9FED1B0A30EEC00A03E09FEDDE
:101F1000190A30EE800AF0EE400A20EEA00ADFED4A
:101F2000161AB0EE611ADFED151A41EE001AB0EE86
:101F3000611ADFED131A41EE001AB0EE611ADFEDFF
:101F4000111A41EE001AB0EE611ADFED0F1A41EEE0
:101F5000001AB0EE611ADFED0D1A41EE001A20EE04
:101F6000A00A20EE201AB0EE600A01EE210A7047A6
:101F700083F9A23EDA0F49407ABF142FCA32D4B295
:101F800035C538369E0A50B97888083CAAAA2ABEB8
:101F900010B52DED088BF0EE408AB0EE680AFEF722
:101FA000CDFEB0EE409A1A4890ED000A39EE400A94
:101FB000B0EE408AB0EE480AFEF790FCB0EE408AE0
:101FC0009FED140A38EE400A10EE101A0846FEF78C
:101FD000F7F841EC1B0BB0EE4B0AF0EE6B0AFEF784
:101FE000FBFDB0EE40AAF0EE60AA9FED0B0B53ECA8
:101FF000102B51EC1A0BFEF7F7F803D29FED080AED
:10200000B0EE408AB0EE480ABDEC088B10BD00006F
:1020100028000020D00FC9408DEDB5A0F7C6B03E16
:102020000000000010B5054905A002F064FB0A4954
:10203000088002484860084610BD00007406002071
:102040005669727475616C20436F6D506F727420A5
:10205000436F6E66696700006001002000487047AA
:1020600048010020004870474001002010B5054994
:1020700005A002F040FB0B49088002484860084672
:1020800010BD0000740600205669727475616C20E2
:10209000436F6D506F727420496E74657266616330
:1020A00065000000600100200048704750010020DA
:1020B00010B5054905A002F01EFB0649088002483C
:1020C0004860084610BD0000740600204172746527
:1020D00072790000600100200020704710B50549AA
:1020E00005A002F008FB0A4908800248486008463B
:1020F00010BD00007406002041543332205669722E
:102100007475616C20436F6D20506F727400000015
:10211000600100200020704710B500F005F801486C
:1021200010BD00005801002070B50A480468001D69
:102130000568001D0668344454B10822064920464B
:1021400002F005F9042204491031284602F0FFF894
:1021500070BD0000E8F7FF1F2601002041617047B5
:10216000016170474FF6FF710160002181710171BB
:10217000042141710121C1717047F0B50A461588EB
:10218000ABB29579032D01D100241AE0957965B998
:10219000557905F00F045579182D01D1036110E030
:1021A0005579282D0DD143610BE0957905F008058F
:1021B000167906F004063543D67906F0030645EA9B
:1021C0000604DDB2A5B1002110E001258D401D40BF
:1021D0005DB105688F000F26BE40B54305600568F8
:1021E0008E0004FA06F635430560491C0829ECD335
:1021F000FF2B15DD1B12002110E001258D401D4035
:102200005DB145688F000F26BE40B5434560456807
:102210008E0004FA06F635434560491C0829ECD3C4
:10222000F0BD0000F0B50C46104F07EB1062C0F394
:102230000741C0F30725C6B2C5F12007A7EB010C83
:102240004FF0FF3707FA0CF3C5F120077F1AFB4068
:10225000CB408B4017689F4317602CB106FA01FCF6
:10226000176847EA0C071760F0BD00000000014046
:10227000B4EEC10AF1EE10FA02DBB0EE410A08E05A
:10228000B4EEE00AF1EE10FA02D8B0EE600A00E017
:1022900000BF704702F0A2FB02F006FB02F06EFAEC
:1022A00002F092FA02F0E6FB02F070FA02F02EFB66
:1022B00002F002FC02F060FD02F04DFA02F0E8FDCF
:1022C00002F080FDFFF748FD4FF4FA60FFF760FD74
:1022D0000648FFF7BDF900BF00BF01221146900775
:1022E00000F0CCFB01E002F083FDFCE7D10900081F
:1022F0002DE9F0470B4614464FF0000C00BF2C4A66
:102300001268C2F302211D4626460A46C2F1070999
:10231000B9F1040F02D94FF0040901E0C2F1070935
:10232000C84602F10409B9F1070F02D24FF00009C3
:1023300001E0A2F103094F464FF0010909FA08F93B
:10234000A9F1010909EA050909FA07F94FF0010A9B
:102350000AFA07FAAAF1010A0AEA060A49EA0A0988
:10236000CC4601466246002904DB15072E0E114DAE
:102370006E5407E015072F0E0D4D0C3501F00F06BA
:10238000361FAF5500BF014600290DDB00BF00BF5F
:1023900001F01F050122AA404D09AD0005F1E0251D
:1023A000C5F8002100BF00BF00BFBDE8F0870000F6
:1023B0000CED00E000E400E000BF00F00702064B77
:1023C00019684FF6FF031940044B0B4343EA0221FF
:1023D000014B196000BF70470CED00E00000FA05EA
:1023E00070B52DED048B04460D46B0EE408AB2EE7A
:1023F000081AFAEE080A424890ED000AFFF738FF83
:102400003F4880ED000AB0EE480AFFF7C1FDF0EE4C
:10241000408AB1EE080A3A4880ED000A9FED390A79
:10242000394880ED000AB0EE680AFFF74DFD3448E8
:10243000D0ED000AF1EE600A20EE209AB0EE680AB4
:10244000FFF7E0FC3048D0ED000A00EE809A2F48FC
:1024500080ED009AB0EE680AFFF7D4FC2848D0ED72
:10246000000A20EE209AB0EE680AFFF72DFD2648FC
:10247000D0ED000A00EE809A254880ED009A2348AE
:1024800090ED000AF2EE080A30EE200A214880EDB5
:10249000000A1E4890ED000A1D48D0ED000A9FED8D
:1024A0001E1A11EE200AF0EE000A80EE201AB2EE9B
:1024B000080A31EE000A194880ED000A134890ED31
:1024C000000A1348D0ED000A9FED151A11EE200AFC
:1024D000F0EE000A80EE201AB2EE080A31EE000A91
:1024E000104880ED000A90ED001A0C48D0ED000A6B
:1024F000084890ED000A00F017F8BDEC048B70BDA1
:1025000058000020000000005C0000203C0000207B
:10251000400000204C0000202DB2DD3F5000002084
:102520002DB2DDBF5400002010B52DED048BB0EEB0
:10253000409AB0EE608AF0EE418AB3EE081ADFED01
:102540003F0AB0EE490AFFF793FEB0EE409AB3EEB1
:10255000081ADFED3A0AB0EE480AFFF789FEB0EE3E
:10256000408AB3EE081ADFED350AB0EE680AFFF7CD
:102570007FFEF0EE408AB3EE080AC9EE000AF0EEE4
:10258000601AB7EE001ADFED2D0AB0EE610AFFF710
:102590006FFE2B4880ED000AB3EE080AC8EE000A71
:1025A000F0EE601AB7EE001ADFED240AB0EE610A11
:1025B000FFF75EFE234880ED000AB3EE080AC8EE7E
:1025C000800AF0EE601AB7EE001ADFED1C0AB0EEDA
:1025D000610AFFF74DFE1C4880ED000A184890ED97
:1025E000000ADFED1A0A20EE200ABCEEC00A10EE47
:1025F000102A0021164800F01BFA124890ED000A3C
:10260000DFED120A20EE200ABCEEC00A10EE102AFE
:1026100002210F4800F00CFA0B4890ED000ADFEDA4
:102620000B0A20EE200ABCEEC00A10EE102A04218C
:10263000074800F0FDF9BDEC048B10BD0000000060
:1026400030000020340000203800002000409C456D
:10265000002C0140026861F34D320260704702694C
:1026600061F30F02026170470021017041708170B7
:10267000C1700171417181710121C171704702689E
:1026800061F38612026070470146C86880B27047E5
:10269000C16070470246002093680B4003B900E018
:1026A00001207047C26922F40062C2610A7862B9EF
:1026B000026822F400420260026822F48042026052
:1026C000026822F48062026036E00A78012A0ED1A4
:1026D000026822F400420260026822F48042026032
:1026E000026822F4806202F58062026024E00A78C7
:1026F000022A0ED1026822F4004202F50042026072
:10270000026822F480420260026822F48062026061
:1027100012E00A78032A0FD1026822F4004202F57F
:1027200000420260026822F4804202F580420260A8
:10273000026822F480620260CB79026863F3492266
:1027400002604A78012A09D1CA79012A06D10268B1
:1027500022F4807202F58072026003E0026822F4C3
:10276000807202604B78026863F3820202608A78AA
:10277000072A0BDD426822F4807202F58072426003
:102780008A78036862F3C503036008E0426822F4B4
:10279000807242608B78026863F3C5020260CB7876
:1027A000026863F3C71202600B79026863F3CB22FD
:1027B00002604B79026863F3410202608B79026820
:1027C00063F300020260704710B52DED068BB0EE8A
:1027D000408A9FED330AF0EE408A9FED310AB0EE59
:1027E000409A9FED2F0AF0EE409A9FED2D0AFFF7D9
:1027F000CFFBB0EE40AAB0EE4A0AFFF765FBF1EE60
:10280000690A60EE20AAB0EE4A0AFFF7FBFA48EE2A
:1028100000AAF0EE6A8AB0EE4A0AFFF7F3FA60EE19
:1028200029AAB0EE4A0AFFF74FFB48EE00AAB0EE25
:102830006A9AB2EE080A38EE800A1A4880ED000A59
:10284000DFED190AB0EE680A10EE890AB0EE001A40
:10285000C0EE010AB2EE080A30EE800A134880ED9D
:10286000000ADFED130AB0EE680A10EE890AB0EE36
:10287000001AC0EE010AB2EE080A30EE800A0D48D6
:1028800080ED000A90ED001A0848D0ED000A0548D6
:1028900090ED000AFFF748FEBDEC068B10BD00006E
:1028A000000000004C0000202DB2DD3F5000002051
:1028B0002DB2DDBF540000202DE9F0470026002492
:1028C00000250027A046A146FFF724FA8246BAF168
:1028D000000F06D0BAF1010F15D0BAF1020F46D1A0
:1028E00015E02D48406DC0F3402040B12A48006BF0
:1028F000C0F3406018B129482949086002E029481E
:102900002749086037E027482549086033E0224816
:102910004068C0F3004720484068C0F383441E4825
:102920004068C0F341750DB90F2C03D12801401C3C
:10293000044400E0A41C27B91B4860431849086000
:1029400014E015484068C0F3404058B11248406D4B
:10295000C0F30136B01C1349B1FBF0F060431049DD
:10296000086003E00F4860430D49086003E00D482C
:102970000B49086000BF00BF07484068C0F3031858
:102980000A4810F808900648006820FA09F004493F
:102990000860BDE8F087000000100240006CDC0217
:1029A0001000002000127A0000093D00D84E0008F7
:1029B000042808D14FF0E021096941F004014FF0EB
:1029C000E022116107E04FF0E021096921F00401E4
:1029D0004FF0E02211617047C1628262436923F0C7
:1029E00001035B1C436170478B79426C63F30C32CB
:1029F00042640B78426C63F3070242644B79426C89
:102A000063F38A2242640B79426C63F3CB22426403
:102A10004B78426C63F34D324264CB78426C63F383
:102A20008E3242648B78426C63F3092242647047B1
:102A30000B4633B1022B06D0042B06D0062B08D14F
:102A400005E0426306E0826304E0C26302E00264E0
:102A500000E000BF00BF7047026861F30922026016
:102A60007047026861F3061202607047026861F302
:102A7000000202607047CA4302617047012A03D115
:102A8000C3680B43C36003E012B9C3688B43C360E0
:102A9000704710B50B4633B1022B09D0042B0CD074
:102AA000062B14D10EE0846962F3C30484610FE045
:102AB000846962F3CB2484610AE0C46962F3C304CD
:102AC000C46105E0C46962F3CB24C46100E000BFC7
:102AD00000BF10BD2DE9F04100250026002701F1BF
:102AE00008035C1C92F801C00CFA03FC1FFA8CF579
:102AF00092F802C00CFA04FC1FFA8CF6D0F804C05D
:102B00004FF0010808FA04F82CEA080CC0F804C0D9
:102B1000D0F804C04CEA060CC0F804C0D0F804C0D9
:102B20004FF0010808FA03F82CEA080CC0F804C0BA
:102B3000D0F804C04CEA050CC0F804C00F4637B109
:102B4000022F0DD0042F14D0062F24D11AE092F8B2
:102B50000080D0F818C068F3061CC0F818C01BE04D
:102B600092F80080D0F818C068F30E3CC0F818C086
:102B700012E092F80080D0F81CC068F3061CC0F880
:102B80001CC009E092F80080D0F81CC068F30E3C2D
:102B9000C0F81CC000E000BF00BF4FF0010C0CEB00
:102BA00041034FF0030C0CEB410492F803C00CFA04
:102BB00003FC1FFA8CF592F804C00CFA04FC1FFA0F
:102BC0008CF64FF0010808FA04F8D0F820C02CEA7F
:102BD000080CC0F820C0D0F820C04CEA060CC0F8A1
:102BE00020C04FF0010C0CFA03FCD0F8208028EA3A
:102BF0000C08C0F82080D0F820C04CEA050CC0F8C2
:102C000020C04B004FF0020C0CEB410492F805C0C1
:102C10004FEA41080CFA08FC1FFA8CF592F806C03E
:102C20004FF0020808EB41080CFA08FC1FFA8CF67A
:102C30004FF0010808FA04F8D0F820C02CEA080C7C
:102C4000C0F820C0D0F820C04CEA060CC0F820C064
:102C50004FF0010808FA03F8D0F820C02CEA080C5D
:102C6000C0F820C0D0F820C04CEA050CC0F820C045
:102C7000BDE8F08110B50B4633B1022B09D0042B0F
:102C80000CD0062B14D10EE0846962F382048461B7
:102C90000FE0846962F38A2484610AE0C46962F304
:102CA0008204C46105E0C46962F38A24C46100E05F
:102CB00000BF00BF10BD426C61F3CF324264704769
:102CC000026861F3C71202607047426861F306123E
:102CD00042607047026B61F30702026370478268CB
:102CE00061F3C71282607047402001490880704735
:102CF0000C0000200146034A108812880A44014B48
:102D00001A8070470C000020016C21F00201016460
:102D1000016E21F002010166704710B50446206C77
:102D200020F0010020640020606420658020E064C1
:102D300001224FF41E41204600F0BEFB10BD016C85
:102D400021F0080108310164016C21F00401091D22
:102D50000164704730B50246887A002864D18878CB
:102D6000012831D10878894B03EB8000D0F8000CA2
:102D7000C0F3801098B1087803EB8000D0F8000C05
:102D800048F68F73184040F0400040F4004040F097
:102D900080000B787D4C04EB8303C3F8000C0B78A8
:102DA0007A4C04EB8303D3F8003C48F6BF7403EA83
:102DB000040040F4004343F080030C78734D05EBAE
:102DC0008404C4F8003CE0E00878704B03EB80001A
:102DD000D0F8000CC0F3803088B1087803EB800095
:102DE000D0F8000C48F68F73184040F4404040F093
:102DF00080000B78654C04EB8303C3F8000C0B7860
:102E0000624C04EB8303D3F8003C4BF68F7403EA67
:102E1000040040F4004343F080030C785B4D05EB65
:102E20008404C4F8003CB0E00878584B03EB800001
:102E3000D0F8000CC0F3801098B1087803EB800044
:102E4000D0F8000C48F68F73184040F0400040F472
:102E5000004040F080000B784C4C04EB8303C3F837
:102E6000000C0878494B03EB8000D0F8000CC0F34D
:102E7000803088B1087803EB8000D0F8000C48F669
:102E80008F73184040F4404040F080000B783F4C76
:102E900004EB8303C3F8000C887801283BD1087841
:102EA0003A4B03EB8000D0F8000C48F68F731840C3
:102EB00040F0400040F4004040F080000B78334C7C
:102EC00004EB8303C3F8000C0B7804EB8303D3F803
:102ED000003C48F6BF7403EA040040F4004343F0AA
:102EE00080030C78294D05EB8404C4F8003C0B7872
:102EF0002C4604EB8303D3F8003C4BF68F7403EAB3
:102F0000040040F4004343F080030C7805EB840494
:102F1000C4F8003C39E008781C4B03EB8000D0F883
:102F2000000C48F68F73184040F4404040F0800099
:102F30000B78164C04EB8303C3F8000C0B7804EBFE
:102F40008303D3F8003C48F6BF7403EA040040F45E
:102F5000004343F080030C780C4D05EB8404C4F867
:102F6000003C0B782C4604EB8303D3F8003C4BF673
:102F70008F7403EA040040F4004343F080030C78AC
:102F800005EB8404C4F8003C00BF30BD0050004095
:102F900070B5044600230878FA4A02EB8000D0F8A6
:102FA000000C48F68F72104020F00F004A78104352
:102FB0000A78F44D05EB8202C2F8000CC87808B913
:102FC0006B150EE0C878022801D1002309E0C8780B
:102FD000032801D1430204E0C878012801D183020B
:102FE00088720878E74A02EB8000D0F8000C48F6B7
:102FF0008F72104020F4C06018430A78E14D05EB51
:103000008202C2F8000C887801287DD1887AE8BB5A
:103010008A88DD480568087805EBC000DB4D2D681F
:1030200045F810200878D74A02EB8000D0F8000C51
:10303000C0F3801098B1087802EB8000D0F8000C43
:1030400048F68F72104040F0400040F4004040F0DD
:1030500080000A78CB4D05EB8202C2F8000C0A789A
:10306000C84D05EB8202D2F8002C48F6BF7502EA83
:10307000050080F0200040F4004242F080020D780C
:10308000C04E06EB8505C5F8002C06E2FFE7087880
:10309000BC4A02EB8000D0F8000C40F4807048F687
:1030A0008F72104048F2800210430A78B54D05EB4C
:1030B0008202C2F8000C8A88B3480568087805EBDC
:1030C000C000B24D2D6845F81020CA88AE4805688A
:1030D000087805EBC000001DAC4D2D6845F81020A8
:1030E0000878A84A02EB8000D0F8000CC0F38010EA
:1030F000A8B1087802EB8000D0F8000C48F68F7277
:10310000104040F0400000E060E040F4004040F03B
:1031100080000A789B4D05EB8202C2F8000C08780B
:10312000984A02EB8000D0F8000CC0F3803088B1E0
:10313000087802EB8000D0F8000C48F68F7210403F
:1031400040F4404040F080000A788E4D05EB82024A
:10315000C2F8000C08788B4A02EB8000D0F8000C13
:1031600048F68F72104040F4404040F080000A78EA
:10317000844D05EB8202C2F8000C0A7805EB82024E
:10318000D2F8002C4BF68F7502EA050040F400429D
:1031900042F080020D787B4E06EB8505C5F8002CC9
:1031A0000A78354605EB8202D2F8002C48F6BF7546
:1031B00002EA050080F0200040F4004242F0800264
:1031C0000D7806EB8505C5F8002C66E1887A0028A5
:1031D00068D1CA886C480568087805EBC000001DF6
:1031E0006A4D2D6845F810200878664A02EB800089
:1031F000D0F8000CC0F3803088B1087802EB800072
:10320000D0F8000C48F68F72104040F4404040F077
:1032100080000A785B4D05EB8202C2F8000C5A4828
:103220000568087805EBC000801D584D2D6805EB3A
:1032300040020D893E2D0FDD0D8968110D7A05F0D4
:103240001F050DB9451EA8B24FF6FF7505EA80258A
:1032500045F4004515600CE00D8968100D7A05F005
:1032600001050DB9451CA8B24FF6FF7505EA80258A
:1032700015600A78434D05EB8202D2F8002C4BF61C
:103280008F7502EA050080F4805080F4005040F40D
:10329000004242F080020D783A4E06EB8505C5F8F3
:1032A000002CFAE00878374A02EB8000D0F8000CD6
:1032B00040F4807048F68F72104048F2800210434C
:1032C0000A78304D05EB8202C2F8000C8A882E483D
:1032D0000568087805EBC0002C4D2D6845F81020D6
:1032E000CA8829480568087805EBC000001D274DED
:1032F0002D6845F8102024480568087805EBC000C3
:10330000801C224D2D6805EB40020D893E2D0FDDFE
:103310000D8968110D7A05F01F050DB9451EA8B27B
:103320004FF6FF7505EA802545F4004515600CE071
:103330000D8968100D7A05F001050DB9451CA8B27C
:103340004FF6FF7505EA802515600F480568087877
:1033500005EBC000801D0D4D2D6805EB40020D8969
:103360003E2D15DD0D8968110D7A05F01F050DB98B
:10337000451EA8B24FF6FF7505EA802545F40045C5
:10338000156012E000500040505C00400800002032
:103390000D8968100D7A05F001050DB9451CA8B21C
:1033A0004FF6FF7505EA8025156008783B4A02EB69
:1033B0008000D0F8000CC0F3801098B1087802EBC0
:1033C0008000D0F8000C48F68F72104040F04000AA
:1033D00040F4004040F080000A78304D05EB820256
:1033E000C2F8000C08782D4A02EB8000D0F8000CDF
:1033F000C0F3803088B1087802EB8000D0F8000C70
:1034000048F68F72104040F4404040F080000A7847
:10341000224D05EB8202C2F8000C08781F4A02EB2D
:103420008000D0F8000C48F68F72104040F0400049
:1034300040F4004040F080000A78184D05EB82020D
:10344000C2F8000C0A7805EB8202D2F8002C4BF689
:103450008F7502EA050080F4805080F4005040F43B
:10346000004242F080020D780C4E06EB8505C5F84F
:10347000002C0A78354605EB8202D2F8002C48F67B
:10348000BF7502EA050040F4004242F080020D7868
:1034900006EB8505C5F8002C00BF70BD005000404C
:1034A000016C21F008010164016C21F00401016448
:1034B0007047CA4342647047012A03D1036C0B432F
:1034C000036402E0036C8B43036470470FB438B5A8
:1034D00005A8009080210E48009B049AFDF746FB4A
:1034E000044600200090002C0FDD42F2107503E02E
:1034F000681E051E00D106E0A2B20549054800F08D
:103500008DF80128F4D100BF00BF38BC5DF814FB72
:10351000980500206C010020F0B50346084F3F6875
:1035200007EB4100571C7E101D46002405E030F8D3
:10353000027B2F80801CAD1C641CB442F7D3F0BD0D
:1035400008000020C26C61F30602C264C26C22F063
:1035500080028032C2647047F0B504461D4623469F
:103560005E68706A202902D021292CD114E01678D7
:10357000577846EA0726977846EA0746D77846EA14
:1035800007664665177958263754577959263754B0
:1035900097795A26375417E090F854601670B0F8AF
:1035A0005460360A5670466D360C9670466D360E6F
:1035B000D6705826365C16715926365C56715A26D6
:1035C000365C967100E000BF00BFF0BD2DE9F0470A
:1035D00006460F460025A946B046D8F80400446ABE
:1035E00094F8530010B90020BDE8F087002084F85B
:1035F0005300B4F85090002504E0201D405D78553C
:10360000681C85B2B4F85000A842F6DC4023221DA5
:103610000121404600F0FEFB4846E5E72DE9F04772
:1036200004460D4616464FF0010927467868D0F843
:10363000248098F8520048B1002088F852003346A0
:103640002A468121384600F01FFC01E04FF00009B6
:103650004846BDE8F0870000F0B50346084F3F68D4
:1036600007EB4100571C7E101D46002405E02F8803
:1036700020F8027B801CAD1C641CB442F7D3F0BD63
:103680000800002070B50446002504F5037694F880
:103690002402022802D0032817D100E000BF70885E
:1036A000012811D1002084F82702B4F82A0220F062
:1036B0000200A4F82A02606804F5037182682046BB
:1036C0009047204600F0AFF903E0204600F0B7F93C
:1036D00000BF00BF284670BD70B5024601F08003F0
:1036E000F3B301F07F0402F10C0303EB4410037801
:1036F000434C04EB8303D3F8003CC3F380139BB12A
:10370000037804EB8303D3F8003C48F68F7423401E
:1037100043F0400343F4004343F080030478384D02
:1037200005EB8404C4F8003C0378354C04EB8303B8
:10373000D3F8003CC3F30113102B5DD10478304D56
:1037400005EB8404D4F8004C48F6BF7504EA050381
:1037500083F0200343F4004444F08004057800E043
:1037600005E0274E06EB8505C5F8004C44E001F066
:103770007F0402F5867303EB44100378204C04EBBE
:103780008303D3F8003CC3F380338BB1037804EB9D
:103790008303D3F8003C48F68F74234043F440433E
:1037A00043F080030478164D05EB8404C4F8003C14
:1037B0000378134C04EB8303D3F8003CC3F30133C9
:1037C000B3F5805F18D104780D4D05EB8404D4F86F
:1037D000004C4BF68F7504EA050383F4805383F4A1
:1037E000005343F4004444F080040578044E06EB93
:1037F0008505C5F8004C00BF0023C37270BD0000F2
:103800000050004010B504462068FFF77DFA10BD57
:1038100070B505460E4606F07F0105F10C0000EB81
:103820004114002E44D195F8200202284CD1608B1F
:103830002189884211DD608B2189401A6083608B69
:103840002189884201DA608B00E02089034600214B
:103850002846626900F018FB36E0208B21898842F7
:1038600017D1A08B2189884213DBA08BB5F82212D7
:1038700088420EDA0020208300231A461946284683
:1038800000F002FB00231A463146284600F0C2FA37
:103890001AE06868C06838B195F82402032803D19B
:1038A0006868C16828468847284600F09CF80BE005
:1038B0006868406940B195F82402032804D168681B
:1038C000314642692846904770BD2DE9F0410446D3
:1038D0000D4616461F46DDF818806660A760256015
:1038E000012084F82402204600F0F3F92068FFF755
:1038F00014FABDE8F08170B505460E4606F07F016A
:1039000005F5867000EB411426BB95F820020328CC
:103910002CD1608B2189884211DD608B2189401A6E
:103920006083608B2189884201DA608B00E0208906
:10393000034631462846626900F06CFA16E0686872
:10394000006918B16868016928468847284600F070
:103950006AF80BE06868806940B195F82402032892
:1039600004D16868314682692846904770BD70B5B9
:1039700004460D4604F5057104F5037000F088FE59
:10398000012084F8200240F21220005BA4F82202F9
:1039900094F80C0200F01F0020B1012806D0022884
:1039A0000CD107E0204600F055F808E0204600F072
:1039B000EDFC04E0204600F08DF800E000BF00BF01
:1039C00070BDF0B505460E46144605F58677BC83F6
:1039D0007C83032085F820022346324600212846B6
:1039E00000F018FAF0BD10B50446052084F8200256
:1039F00000231A461946204600F00CFA10BD2DE9A6
:103A0000F04105460E46144605F10C07BC837C8345
:103A1000022085F82002234632460021284600F085
:103A200033FABDE8F08110B50446042084F8200282
:103A300000231A461946204600F026FA10BD10B59C
:103A400004460021204600F0DFFD8021204600F0E2
:103A5000DBFD10BD70B50446002504F50376307813
:103A600000F0600038B1606804F503718268204698
:103A70009047284670BD40F20D20005D0A2822D2F2
:103A8000DFE800F00509210D21111521191D20463F
:103A900000F03BFC1BE02046FFF7F4FD17E020465A
:103AA00000F098FD13E0204600F006FD0FE02046F0
:103AB00000F093FB0BE0204600F064FB07E020469B
:103AC00000F024FD03E02046FFF7B9FF00BF00BF70
:103AD0002846CFE72DE9F04104464FF0000804F5F1
:103AE00003773D79387800F0600040B1606804F5F4
:103AF00003718268204690474046BDE8F08178789F
:103B000020B101284DD0032873D173E094F824022A
:103B1000022802D003283ED11FE005F07F0018B133
:103B20002946204600F070FD05F0800030B105F018
:103B30007F0104F10C0000EB411605E005F07F0168
:103B400004F5867000EB41160020B081022206F1D8
:103B50000C012046FFF753FF21E005F0800030B153
:103B600005F07F0104F10C0000EB411605E005F0C3
:103B70007F0104F5867000EB4116F07A012801D12F
:103B8000B08101E00020B081022206F10C01204644
:103B9000FFF735FF03E02046FFF751FF00BF00BFEE
:103BA00054E094F82402022802D003281BD107E035
:103BB0002DB1802D03D02946204600F025FD16E0CA
:103BC000788878B905F07F0048B129462046FFF78C
:103BD00083FD606804F503718268204690472046A3
:103BE000FFF721FF03E02046FFF729FF00BF00BFDA
:103BF0002CE027E094F82402022802D003281BD1ED
:103C000007E02DB1802D03D02946204600F0FCFCB2
:103C100016E0788830B92DB1802D03D02946204692
:103C200000F0F2FC606804F503718268204690475A
:103C30002046FFF7F8FE03E02046FFF700FF00BF35
:103C400000BF03E02046FFF7FAFE00BF00BF40467A
:103C500053E710B504462068FFF771F810BD10B5A2
:103C60000446A07A80B9A078012806D1A088B8B906
:103C70002089FFF73FF8A08012E0E08880B9208912
:103C8000FFF738F8E0800BE0A08818B92089FFF72B
:103C900031F8A080E08818B92089FFF72BF8E08080
:103CA00010BD70B504460D4605F0800030B105F03A
:103CB0007F0104F10C0000EB411605E005F07F01E7
:103CC00004F5867000EB411631462068FFF742F894
:103CD00070BD0146002000BF2BE001F10C0202EB99
:103CE0004012107001F10C0202EB401250700123DF
:103CF00001F10C0202EB40129370002301F10C025F
:103D000002EB4012138101F10C0202EB40125361ED
:103D100001F10C0202EB4012D38101F10C0202EB23
:103D20004012938001F10C0202EB4012D380421C3E
:103D3000D0B20828D1DB00202AE001F5867202EB20
:103D40004012107001F5867202EB40125070002391
:103D500001F5867202EB4012937001F5867202EB58
:103D60004012138101F5867202EB4012536101F596
:103D7000867202EB4012D38101F5867202EB40128B
:103D8000D38001F5867202EB40129380421CD0B2C0
:103D90000828D2DB70472DE9F04104462668002749
:103DA00005E005F00F073946204600F0FDF8756C78
:103DB00005F400400028F4D1BDE8F0812DE9F0477A
:103DC00005460E4617469846D5F8009006F0800046
:103DD00040B906F07F0105F5867000EB4114002024
:103DE000A07007E006F07F0105F10C0000EB411424
:103DF0000120A07008F101004FF6FE7108402081FB
:103E0000E7702046FFF72BFF21464846FFF7C0F832
:103E1000BDE8F0872DE9F0410546144601F07F0723
:103E200005F5867202EB471000264461C38100222B
:103E30000282C2890789BA4204DD0689C289921BBF
:103E4000C28102E01E460022C2814F06DFF834C064
:103E50000CEBD757D7F8007C4BF68F7C07EA0C02A7
:103E600082F4805282F4005242F4004747F0800707
:103E70004FEA416CDFF80C8008EBDC5CCCF8007C8E
:103E8000BDE8F081005000402DE9F04707460D469F
:103E90009146984605F07F0107F10C0000EB4114B4
:103EA0000026D7F800A0C4F81490A4F80E800020D3
:103EB0002082E0892189884204DD2689E089801BEF
:103EC000E08102E046460020E0812683A07A80B9A6
:103ED000A18832466069FFF7BFFB3048016805F0F2
:103EE0007F0001EBC000801C2D49096841F810607B
:103EF0003AE005F07F005AF82000C0F3801080B14E
:103F00002648016805F07F0001EBC000801D2449B0
:103F1000096841F81060E18832466069FFF79CFB50
:103F20000FE01E48016805F07F0001EBC000801C17
:103F30001B49096841F81060A18832466069FFF7A3
:103F40008BFB6806174901EBD050D0F8000C48F6FF
:103F50008F71084040F4404040F080006906114AEB
:103F600002EBD151C1F8000C69060E4A02EBD151A7
:103F7000D1F8001C48F6BF7201EA020080F0100080
:103F800080F0200040F4004141F080016A06054BBA
:103F900003EBD252C2F8001CBDE8F087505C004031
:103FA00008000020005000402DE9F04706460D466D
:103FB000D6F8009059F8258008F0800000283FD0FE
:103FC00006F10C0000EB45146B4901EB8500D0F8BD
:103FD000000C48F60F710840674A02EB8501C1F8F2
:103FE000000C6648006800EBC500801C6449096845
:103FF00031F81000C0F309002082218A606908446A
:104000006061E08900B125B929463046FFF700FC20
:1040100005E0E389294630466269FFF735FF96F8E7
:10402000240202280BD196F82602002807DD96F814
:1040300026123068FFF786FA002086F8260298E0FC
:1040400006F5867000EB451408F40060F8B14B48A3
:10405000006800EBC500801D4949096831F810006F
:10406000C0F309002082228AE18806F50570FFF777
:1040700053FA42485038006840F68F7108403F4973
:104080005039086029463046FFF771FC71E008F4AA
:10409000004000286DD0384901EB8500D0F8000CB5
:1040A00040F68F710840344A02EB8501C1F8000CDC
:1040B000A07A80B93148006800EBC500801D304906
:1040C000096831F81000C0F30907E1883A466069D1
:1040D000FFF722FA36E008F4804080B127480068F4
:1040E00000EBC500801C2649096831F81000C0F3B8
:1040F0000907A1883A466069FFF70EFA0FE01F48EA
:10410000006800EBC500801D1D49096831F81000EA
:10411000C0F30907E1883A466069FFF7FDF91649DF
:1041200001EB8500D0F8000C48F68F71084040F094
:10413000400040F4004040F080000F4A02EB85014F
:10414000C1F8000C208A38442082606938446061DC
:10415000E08918B12089B84200DC25B929463046EB
:10416000FFF7C9FB05E0E389294630466269FFF79E
:1041700051FEBDE8F087000000500040505C004058
:104180000800002070B50446002504F50376F08889
:10419000012803D02046FFF752FC1CE094F82402CB
:1041A000022802D0032811D109E0002084F8280257
:1041B000012204F50A712046FFF721FC0AE00122E2
:1041C00004F229212046FFF71AFC03E02046FFF7FE
:1041D00036FC00BF00BF284670BD2DE9F0470446FD
:1041E0000027B846002540F20E20005B0612082E7C
:1041F00061D2DFE806F06004090E6060575BA168D9
:104200000868804705465BE0A168886880470546E6
:1042100056E040F20E2010F80490B9F1030F23D0BD
:1042200009DCB9F1000F10D0B9F1010F12D0B9F1CA
:10423000020F2CD113E0B9F1040F1AD0B9F1050F18
:104240001CD0B9F1EE0F22D11DE0A16808698047AA
:10425000054625E0A16848698047054620E0A16839
:104260008869804705461BE0A168C8698047054604
:1042700016E0A168486A8047054611E0A168086A0F
:10428000804705460CE02046FFF7D9FB08E0606850
:1042900004F503718268204690473846BDE8F087F0
:1042A00000BF0DE02046FFF7CAFB09E02046FFF7FC
:1042B000C6FB3846F2E72046FFF7C1FB3846EDE77C
:1042C00000BFB5B12888A0B140F21220005B80B1D8
:1042D000298840F21220005B814201DA288802E03E
:1042E00040F21220005B8046424620466968FFF794
:1042F00086FB3846D2E710B5024601F07F0402F58E
:10430000867000EB4413188A10BD70B50446002572
:1043100094F82402022802D0032811D100E000BF43
:1043200094F8270228B1B4F82A0240F00200A4F859
:104330002A02022204F22A212046FFF760FB03E052
:104340002046FFF77CFB00BF00BF284670BD30B59C
:104350000B46002100BF16E00A24B4EB107F05D9FC
:10436000302404EB107403F8114005E0412404EB01
:1043700010740A3C03F81140000100254C00641C35
:104380001D554C1CE1B29142E6DB30BD70B50446D0
:10439000002504F5037694F82402012804D00228AD
:1043A00003D0032810D101E000BF00BF606804F50E
:1043B00003718268204690470546F08818B915B900
:1043C0002046FFF730FB03E02046FFF738FB00BF35
:1043D00000BF284670BD2DE9F04107463E68746C69
:1043E000356C04F4004010B13846FFF7D4FC04F4F7
:1043F000806038B14FF480613046FFF75AF8384694
:1044000000F037F804F4007050B105F4007038B1D2
:104410004FF400713046FFF74CF8384600F04CF985
:1044200004F4807038B105F4807020B14FF48071CD
:104430003046FFF73EF804F4006050B105F4006028
:1044400038B14FF400613046FFF733F8384600F0DA
:104450003DF904F4805050B105F4805038B138462D
:1044600000F067F94FF480513046FFF722F8BDE8BD
:10447000F08110B50446FEF737FC2046FFF729FC13
:104480004023002211462046FFF798FC40230022DB
:1044900080212046FFF792FC00212068FFF752F8A8
:1044A000012084F824026068006A20B1606801215C
:1044B000026A2046904710BD2DE9F04104460027CE
:1044C00004F50375A888D0B9E888C0B9A87800F0C9
:1044D0007F0694F82402032803D12046FFF7AFFAA1
:1044E00010E084F826621EB1022084F8240202E063
:1044F000012084F824022046FFF795FA02E02046C6
:10450000FFF79DFA3846BDE8F081000070B504461B
:10451000002604F50375A8782D490870A88800289E
:1045200050D1E88800284DD194F82402022802D006
:10453000032842D115E02648007870B1244800785D
:1045400084F82902032084F8240260680168204668
:1045500088472046FFF767FA02E02046FFF763FA34
:104560002FE01B48007870B9022084F82402184814
:10457000007884F829026068416820468847204610
:10458000FFF751FA18E094F8290211490978884296
:104590000FD060684168204688470D48007884F84D
:1045A000290260680168204688472046FFF73BFAE9
:1045B00002E02046FFF737FA03E02046FFF73FFA14
:1045C00000BF02E02046FFF73AFA304670BD000017
:1045D0001400002070B50446002504F503767088A9
:1045E00001280BD184F82702606804F50371826802
:1045F000204690472046FFF716FA02E02046FFF7D4
:104600001EFA284670BD000070B5024601F0800316
:10461000E3B101F07F0402F10C0303EB44100478D2
:104620001A4D05EB8404D4F8004C48F6BF7504EA33
:10463000050383F0100343F4004444F0800405783C
:10464000124E06EB8505C5F8004C1CE001F07F0416
:1046500002F5867303EB441004780C4D05EB8404DB
:10466000D4F8004C4BF68F7504EA050383F48053AD
:1046700043F4004444F080040578044E06EB8505BD
:10468000C5F8004C00BF0123C37270BD005000404C
:104690000A7802704A7842708B78CA7803EB02225B
:1046A00042800B794A7903EB022282808B79CA79A6
:1046B00003EB0222C280704710B504466068C069EF
:1046C00018B16068C1692046884710BD10B504461E
:1046D00094F8240284F82502042084F82402204659
:1046E000FFF7B7FA6068006A20B160680221026AC9
:1046F0002046904710BDF0B50346002002241A461C
:104700000CE0451CA8B212F8017B2546661CB4B229
:104710004F5500272546661CB4B24F551578002D1D
:10472000EFD1022505EB4005A8B2087003254D70B6
:10473000F0BD10B504462068FEF7B2FE94F82502DD
:1047400084F824026068006A20B160680321026A6C
:104750002046904710BD10B541F62C70FCF766FF5F
:104760004FF4FA50FCF768FF41F65470FCF76AFF0B
:1047700001210220FCF742FF10BD000010B501210D
:104780000148FDF74FFD10BD020310301CB568460F
:10479000FDF7E8FC19210B48FDF7E0FC02208DF83D
:1047A000070000208DF8040010208DF80600192065
:1047B000009004208DF8050069460248FDF7DDFCF5
:1047C0001CBD0000000C014070B50320FDF7F4FD96
:1047D000FCF7E6F9054600221146FCF704F9044609
:1047E00021466FF00B00FCF7E3F9FCF7D9F9054619
:1047F00000221146FCF7F7F8044621466FF00A0044
:10480000FCF7D6F9FCF7CCF9054600221146FCF777
:10481000EAF8044621466FF00900FCF7C9F9FCF7F5
:10482000BFF9054600221146FCF7DDF80446214693
:104830006FF00400FCF7BCF9FCF7B2F90546002262
:104840001146FCF7D0F8044621466FF00300FCF750
:10485000AFF9FCF7A5F9054600221146FCF7C3F8AD
:10486000044621466FF00100FCF7A2F9FCF798F925
:10487000054600220F21FCF7B6F8044621464FF00A
:10488000FF30FCF795F9002211461C20FDF730FDA2
:10489000002211462320FDF72BFD002211464A205D
:1048A000FDF726FD70BD000010B501214FF4C010CA
:1048B000FDF786F901211348FDF782F9012111481E
:1048C000401CFDF77DF901210E48C01CFDF778F969
:1048D00001210C480930FDF773F9012109480A301C
:1048E000FDF76EF9012107481430FDF769F9012140
:1048F0004FF4E010FDF764F901210348FDF760F97A
:1049000010BD00000200180017001C001FB502A80F
:10491000FDF728FC6846FDF7A7FE02208DF80F0082
:1049200000208DF80C0008208DF80E002020029049
:1049300004208DF80D0002A92648FDF71EFC022078
:104940008DF80F0000208DF80C008DF80E0040202F
:10495000029004208DF80D0002A91E48FDF70DFC01
:1049600002208DF80F0000208DF80C0008208DF833
:104970000E008020029004208DF80D0002A9154839
:10498000FDF7FBFB00208DF8000001208DF80100F1
:1049900000208DF804008DF8030002208DF802003D
:1049A00000208DF8050001208DF806008DF8070025
:1049B00069460948FDF776FE07210748FDF74FFED7
:1049C00001210548FDF746FE01210348FDF757FE8A
:1049D0001FBD0000000801400030014010B5FDF788
:1049E0004FF901210420FCF7DDFF00BF2048FDF74F
:1049F0009FF80128FAD101210846FCF7D3FF00BF38
:104A0000FDF7AEF80028FBD001210020FCF7CAFF1B
:104A100000BF0120FDF78CF80128FAD101221D21E9
:104A20001046FDF7EFF801210220FCF7BBFF00BFA5
:104A30001920FDF77DF80128FAD10020FCF780FF4E
:104A40000420FCF791FF0420FCF784FF0120FCF711
:104A500095FF0220FDF740F900BFFDF75BF9022842
:104A6000FBD10020FCF78AFFFDF726FF10BD0000F8
:104A70000100240010B586B0002401A8FCF7C2FF95
:104A8000029C0420FDF794FF0948B4FBF0F00949AB
:104A9000086000204FF0E02188616FF07F4048619E
:104AA0000846006940F00100086106B010BD000032
:104AB00040420F000000002000B587B005A8FDF7B8
:104AC00051FB4FF48050059000208DF81A008DF8AE
:104AD000180004208DF8190001208DF81B0005A98D
:104AE000A248FDF74AFB4FF40050059008208DF8CE
:104AF0001A0000208DF8180004208DF819000120FC
:104B00008DF81B0005A99948FDF737FB4FF480404D
:104B1000059008208DF81A0000208DF81800042058
:104B20008DF8190001208DF81B0005A98F48FDF7AD
:104B300024FB4FF40040059008208DF81A00002057
:104B40008DF8180004208DF8190001208DF81B0045
:104B500005A98648FDF711FB4FF4807005900820E9
:104B60008DF81A0000208DF8180004208DF8190027
:104B700001208DF81B0005A97D48FDF7FEFA4FF4D2
:104B80000070059008208DF81A0000208DF818009C
:104B900004208DF8190001208DF81B0005A9744828
:104BA000FDF7EBFA4FF48060059008208DF81A00AD
:104BB00000208DF8180004208DF8190001208DF8D0
:104BC0001B0005A96A48FDF7D8FA02216948FDF7DC
:104BD00048FF00216748FDF73FFF00216548FEF7C9
:104BE00079F800216348FEF76BF8002241F2873123
:104BF0006048FDF7F1FE00215E48FEF770F80021E5
:104C00005C48FEF762F806208DF80C0001208DF854
:104C100011008DF8120000208DF80F008DF81000A3
:104C20008DF80D008DF80E0003AA00215148FDF704
:104C300051FF002211464F48FDF7FAFE00221146AF
:104C40004C48FDF726FF002211464A48FEF712F8AD
:104C500006208DF80C0001208DF811008DF812004F
:104C600000208DF80F008DF810008DF80D008DF8E4
:104C70000E0003AA02213F48FDF72CFF002202216B
:104C80003C48FDF7D5FE002202213A48FDF701FF1E
:104C9000002202213748FDF7EDFF06208DF80C00B9
:104CA00001208DF811008DF8120000208DF80F0002
:104CB0008DF810008DF80D008DF80E0003AA042168
:104CC0002C48FDF707FF002204212A48FDF7B0FE1B
:104CD000002204212748FDF7DCFE0022042125489C
:104CE000FDF7C8FF06208DF80C0001208DF811009B
:104CF00000208DF812008DF80F008DF810008DF84F
:104D00000D008DF80E0003AA06211A48FDF7E2FEF9
:104D1000002206211748FDF78BFE002206211548C8
:104D2000FDF7B7FE002206211248FDF7A3FF002081
:104D30008DF80A008DF807008DF805008DF8080041
:104D40008DF809008DF8060032208DF8040001A9C5
:104D50000848FDF749FE01210648FDF7ACFF012197
:104D60000448FDF783FE07B000BD0000000C0140C1
:104D700000080140002C014010B500214FF0804098
:104D8000FDF76FFE00214FF08040FDF765FE00212A
:104D90004FF08040FDF794FF002240F65F114FF086
:104DA0008040FDF719FE00214FF08040FDF797FF8E
:104DB00000214FF08040FDF788FF01218807FDF7B3
:104DC00055FE10BD08B50020054B064A0649009067
:104DD0000648FEF77AFD0548FEF714FD08BD000001
:104DE000A000002078000020005C00406C01002042
:104DF000F0B5A3B000241F4D1F4890ED000A8DEDC3
:104E0000000A1E4890ED000A8DED010A1C4890ED45
:104E1000000A8DED020A03AA03216846FBF703FE90
:104E20000646324603A91748FEF7F8FB074616491F
:104E30001448FEF7CBFB04461CB91448007801283F
:104E400015D114B101201149087014B900200F497F
:104E5000087000BFA2B20C490A48FEF7DFFB012828
:104E600000D103E0281EA5F10105F3D100BF23B056
:104E7000F0BD0000404B4C004C00002050000020D2
:104E8000540000206C010020980300200400002042
:104E900010B50120FCF756FF0120FCF743FF10BDC1
:104EA00010B50248FFF797FA10BD00006C01002012
:104EB00000000000000000000102030406070809CA
:104EC00000000000010203040000000001020304CE
:104ED00002040608020C0810000000000000000098
:104EE0000102030406070809084F0008000000201B
:104EF0006C01000084080008D04F00086C010020FD
:104F00000C0A0000200D000891126043404063121B
:104F10007A1430014005500C0140012AC252120897
:104F2000130F18140879171B0883081AD5081A9D3F
:104F3000041AF9041A59101339191B08DB0C131839
:104F40000614206520140815211B085D081AD904D1
:104F50001AA9041AB1041ADD041A19181A6D081ACC
:104F6000250413120123020216403C2E40571D0255
:104F7000010203671C0902430B1125C03209041BFF
:104F800001020B1305241610010524011009010468
:104F9000240202052406170107058203081CFF09E5
:104FA0000441320A2E0705810240072A0107110732
:104FB0001A040309041A03321222C83320431ADCEC
:104FC00008196A1113200133201A1968C220000041
:040000050800018569
:00000001FF
